:100000000C9464000C948C000C948C000C942103D0
:100010000C9421030C9421030C948C000C948C0000
:100020000C948C000C948C000C948C000C948C0020
:100030000C948C000C948C000C948C000C948C0010
:100040000C9476050C948C000C942F080C94610889
:100050000C948C000C948C000C948C000C948C00F0
:100060000C948C000C948C0000000008000201002D
:100070000003040700000000000000000102040863
:100080001020408001020408102001020408102002
:10009000040404040404040402020202020203032E
:1000A00003030303000000002300260029000000D2
:1000B0000000250028002B0000000000240027007D
:1000C0002A004D0191086C0111241FBECFEFD8E02A
:1000D000DEBFCDBF11E0A0E0B1E0EEE5FBE102C084
:1000E00005900D92A03EB107D9F725E0A0EEB1E052
:1000F00001C01D92A538B207E1F710E0C6ECD0E0D0
:1001000004C02297FE010E94580BC23CD107C9F7D8
:100110000E94D5080C94A20D0C940000CF93DF939D
:1001200080EE91E00E949B03CAE5D4E02697CE01C1
:100130000E94C70982E0C230D807C1F78AE594E07F
:10014000DF91CF910C94C70940ED57E060E070E07B
:1001500084EA94E00E94DD0420E835E240E050E0CB
:1001600064EE74E084EA94E00E94F00484EA94E08F
:100170000E94DA046AE071E08091D5049091D6047F
:100180000E9430096AE070E080E090E00E94EF0594
:1001900041E060E084EA94E00E945B0526E040E8EC
:1001A00055E260E070E084EE94E00E94CD0740E00C
:1001B00052EC61E070E080EE91E00E9424046CE17A
:1001C00071E080EE91E00E9430096CE171E080EE18
:1001D00091E00E9430096CE171E080EE91E00E94B4
:1001E000300964E670E080E090E00E94EF056EE187
:1001F00071E080EE91E00E94480964E670E080E0E2
:1002000090E00E94EF0563E271E080EE91E00E94D1
:10021000480964E670E080E090E00E94EF056AE241
:1002200071E080EE91E00E94480964E670E080E0B1
:1002300090E00E94EF0562E371E080EE91E00E94A1
:10024000480968EC70E080E090E00E94EF0540E82B
:1002500055E260E070E080EE91E00E9424046CE1E1
:1002600071E080EE91E00E9430096CE171E080EE77
:1002700091E00E9430096CE171E080EE91E00E9413
:10028000300966E371E080EE91E00E9448096AE37C
:1002900071E084EE94E00C944809CF93DF9368E713
:1002A00071E08AE594E00E94350AC2E0D2E068E796
:1002B00071E0CE010E94350A269684E0CA35D8073F
:1002C000B1F720E0409106016091080180EE91E0D5
:1002D000DF91CF910C94F4030C948E00CF93DF93B5
:1002E000D1E080EE91E00E94CA02892B79F080EE85
:1002F00091E00E943C02C82F682F8AE594E00E949A
:10030000A60ACA3071F7D093FF01EBCFDF91CF91EE
:100310000895EF92FF920F931F93CF93DF9300D036
:1003200000D000D0CDB7DEB70E946E018091FF01F2
:10033000882309F494C06AE574E084EE94E00E9496
:10034000360964E471E0CE0101960E94350ABE01CF
:100350006F5F7F4F8AE594E00E94DD0A182FCE017F
:1003600001960E94C709112301F166E471E084EE51
:1003700094E00E944809209100023091010246E079
:10038000429FC001439F900D11246AE574E08E5F87
:100390009D4F0E944B0A80910002909101020196AC
:1003A000909301028093000252C06CE171E080EEF4
:1003B00091E00E9430096CE171E080EE91E00E94D2
:1003C00030096CE171E080EE91E00E94300964E652
:1003D00070E080E090E00E94EF0566E371E080EE5F
:1003E00091E00E94480992E0E92E92E0F92E00E0A7
:1003F00010E08091000290910102081719075CF447
:10040000B70180EE91E00E9436090F5F1F4F86E032
:10041000E80EF11CEECF82E0E82E82E0F82E00E03C
:1004200010E08091000290910102081719075CF416
:10043000B70184EE94E00E9436090F5F1F4F86E0FB
:10044000E80EF11CEECF109201021092000268E754
:1004500071E08AE594E00E94620A1092FF012696FC
:100460000FB6F894DEBF0FBECDBFDF91CF911F91C5
:100470000F91FF90EF9008952091A2043091A30472
:1004800028173907B9F49091600480916104981796
:1004900089F0E0916004F0E0EE59FB4F80812091FB
:1004A000600430E02F5F3F4F2F73332720936004A9
:1004B00090E008958FEF9FEF08951F93CF93DF9300
:1004C000DC015C968D919C915D97009749F481E0E9
:1004D00090E013969C938E93129780E090E03BC03F
:1004E0005196ED91FC91529750962C915097322F46
:1004F00030951FB75E964C915E9741FB772770F958
:1005000041FD6095F8944081772311F0422B01C0A2
:1005100043234083EC012197F1F748E0508160FFCD
:1005200002C0522B01C053235083EC012197F1F7F5
:100530006695415099F78081772311F0832301C09C
:10054000822B80831FBF5C968D919C915D97019754
:10055000F1F781E090E0DF91CF911F910895089528
:100560002091A2043091A3042817390781F49091B7
:10057000600480916104981751F0E0916004F0E00C
:10058000EE59FB4F8081992787FD909508958FEF55
:100590009FEF08952091A2043091A30428173907F2
:1005A00071F4809161042091600490E0805C9F4F21
:1005B000821B910960E470E00E94ED0A089580E0DA
:1005C00090E00895E091A204F091A304E817F907E0
:1005D00069F4A389B4899C918589809589238C933A
:1005E0001092A3041092A20481E0089580E008957F
:1005F000CF93DF93EC018A8D9B8D892BF1F0809155
:10060000A2049091A3048C179D07B9F0009711F0F4
:100610000E94E2028E8D8E7F8E8F10926104109266
:100620006004D093A304C093A204EB89FC89808169
:100630009D89892B808381E001C080E0DF91CF918B
:1006400008951F920F920FB60F9211242F933F938C
:100650004F935F936F937F938F939F93AF93BF93CA
:10066000EF93FF93E091A204F091A304309709F473
:1006700051C0868DA685B785958581FF04C08C9174
:10068000892329F447C08C91892309F043C0A389A9
:10069000B4899C918589809589238C9386899789D3
:1006A0000197F1F7208D318DA685B785758558E0C6
:1006B00040E0C9010197F1F7842F90E09595879567
:1006C000482F6C91672309F04068515091F7868D4F
:1006D00081FD40958091610490E001968F73992788
:1006E00020916004281749F0A0916104B0E0AE5950
:1006F000BB4F4C938093610403C0868D8160868FCD
:10070000828D938D0197F1F7A389B4898C91958996
:10071000892B8C93FF91EF91BF91AF919F918F9116
:100720007F916F915F914F913F912F910F900FBEED
:100730000F901F9018952DE531E0FC013183208347
:100740000C94E2021F93CF93DF93EC01162F6E8D72
:100750006695617081E06827812F0E94B40661E090
:10076000812F0E947B06812F90E0FC01E458FF4F0F
:10077000E491E88BFC01E057FF4FE491F0E0EE0FCD
:10078000FF1FE255FF4F859194919A8B898BDF91E2
:10079000CF911F9108951F93CF93DF93EC01162FF4
:1007A00060E0812F0E947B068E8D81FD04C061E098
:1007B000812F0E94B4061C87812F90E0FC01E45831
:1007C000FF4FE491ED87FC01E057FF4FE491F0E02B
:1007D000EE0FFF1FEC55FF4F859194919F878E87F9
:1007E000DF91CF911F910895FF920F931F93CF93A5
:1007F000DF93EC01F62E522F1B821A8208EE13E0D3
:1008000020E030E00C831D832E833F838DE591E053
:10081000998388831F8A1E8A198E188E1B8E1A8EC2
:100820001D8E1C8E8E8D8E7F50FB81F98E8F642FD6
:10083000CE010E94A2036F2DCE01DF91CF911F91B7
:100840000F91FF900C94CB03CF93DF93EC019A01AF
:10085000AB011B8E1A8E198E188E1F8A1E8A60E0BD
:1008600079E08DE390E00E94230BC901243031052B
:1008700020F0B9016350710902C061E070E07D8F22
:100880006C8FEC85E63108F068C0B9017695679504
:100890006431710518F06351710902C061E070E0C4
:1008A0007F8B6E8B069718F0C901059702C081E017
:1008B00090E0998F888FC901880F991F820F931F2D
:1008C00096958795969587958D30910510F00C97A4
:1008D00002C081E090E09B8F8A8F20916800E83011
:1008E00050F091E0EE3008F490E081E001C0880F14
:1008F0009A95EAF701C084E0822B809368002C85EA
:10090000283038F02E3040F0263148F48CE690E064
:1009100008C08DE690E005C08BE690E002C080E064
:1009200090E09C8B8B8B283030F481E001C0880FE5
:100930002A95EAF70DC0822F90E02E3010F4089728
:1009400001C00E9791E001C0990F8A95EAF7892FAF
:100950008D8B8C8D9D8D0197F1F7CE01DF91CF911D
:100960000C94F8020F931F93CF93DF93EC0166234F
:1009700059F00E94C00569837A838B839C83DF9141
:10098000CF911F910F9108950E94C00509811A818E
:100990002B813C81601B710B820B930B62337105C1
:1009A0008105910530F763E070E080E090E00E94FF
:1009B000EF05EACF60E00C94B204FC0113AA14AA7C
:1009C00015AA16AA118212821382148241155105AA
:1009D0006105710521F0CB01BA010C94EF05089572
:1009E000FB01BA01A901DC01D296FC93EE93D197E9
:1009F00026E0CF010C94CD071F93CF93DF93EC013A
:100A0000162F69E671E089A99AA90E9430094AE087
:100A100050E0612F89A99AA90E94C00960E771E09E
:100A200089A99AA90E94300962E370E080E090E011
:100A3000DF91CF911F910C94EF051F93CF93DF931C
:100A4000EC01162F8D81882389F189A99AA9DC01EF
:100A5000ED91FC910480F581E02D0995892BA9F396
:100A600007C02637310519F12835310509F41D82F3
:100A700089A99AA9DC01ED91FC910480F581E02D12
:100A800009951816190694F489A99AA9DC01ED9123
:100A9000FC910680F781E02D09959C0133272336D0
:100AA0003105F9F6612FCE010E94FC0483E6DF9147
:100AB000CF911F9108950F931F93CF93DF931F92B0
:100AC000CDB7DEB78C01662349F081E0F80185835C
:100AD00060E0C80149830E941D054981F8014583F2
:100AE0000F90DF91CF911F910F9108951F920F9258
:100AF0000FB60F9211242F933F938F939F93AF9331
:100B0000BF938091DC049091DD04A091DE04B0914C
:100B1000DF043091DB0423E0230F2D3720F401960E
:100B2000A11DB11D05C026E8230F0296A11DB11D10
:100B30002093DB048093DC049093DD04A093DE0417
:100B4000B093DF048091E0049091E104A091E2046D
:100B5000B091E3040196A11DB11D8093E004909330
:100B6000E104A093E204B093E304BF91AF919F919D
:100B70008F913F912F910F900FBE0F901F9018955E
:100B80002FB7F8946091DC047091DD048091DE044D
:100B90009091DF042FBF08953FB7F8948091E0044F
:100BA0009091E104A091E204B091E30426B5A89BE2
:100BB00005C02F3F19F00196A11DB11D3FBF66274B
:100BC000782F892F9A2F620F711D811D911D42E090
:100BD000660F771F881F991F4A95D1F70895CF9206
:100BE000DF92EF92FF92CF93DF936B017C010E9423
:100BF000CC05EB01C114D104E104F10489F00E9499
:100C0000EC0A0E94CC056C1B7D0B683E734090F390
:100C100081E0C81AD108E108F108C851DC4FEACFD9
:100C2000DF91CF91FF90EF90DF90CF90089578946F
:100C300084B5826084BD84B5816084BD85B58260E1
:100C400085BD85B5816085BDEEE6F0E0808181607F
:100C50008083E1E8F0E0108280818260808380817F
:100C600081608083E0E8F0E0808181608083E1EB57
:100C7000F0E0808184608083E0EBF0E0808181603F
:100C80008083EAE7F0E080818460808380818260F5
:100C900080838081816080838081806880831092DE
:100CA000C1000895833081F028F4813099F08230BA
:100CB000A1F008958730A9F08830B9F08430D1F4DC
:100CC000809180008F7D03C0809180008F7780931A
:100CD0008000089584B58F7702C084B58F7D84BD70
:100CE00008958091B0008F7703C08091B0008F7D10
:100CF0008093B0000895CF93DF9390E0FC01E45817
:100D0000FF4F2491FC01E057FF4F8491882349F164
:100D100090E0880F991FFC01E854FF4FA591B49112
:100D200082559F4FFC01C591D4919FB7611108C0B6
:100D3000F8948C91209582238C93888182230AC019
:100D4000623051F4F8948C91322F309583238C9338
:100D50008881822B888304C0F8948C91822B8C9399
:100D60009FBFDF91CF9108950F931F93CF93DF9390
:100D70001F92CDB7DEB7282F30E0F901E859FF4FB9
:100D80008491F901E458FF4F1491F901E057FF4FA6
:100D900004910023C9F0882321F069830E94520640
:100DA0006981E02FF0E0EE0FFF1FE255FF4FA591A4
:100DB000B4919FB7F8948C91611103C01095812371
:100DC00001C0812B8C939FBF0F90DF91CF911F911A
:100DD0000F910895FC01818D228D90E0805C9F4FE2
:100DE000821B91098F7399270895FC01918D828D43
:100DF000981731F0828DE80FF11D858D90E00895F0
:100E00008FEF9FEF0895FC01918D828D981761F00F
:100E1000828DDF01A80FB11D5D968C91928D9F5F31
:100E20009F73928F90E008958FEF9FEF089587E86A
:100E300098E0892B49F08EE691E0892B29F00E94F9
:100E4000870881110C946E010895FC01848DDF01E7
:100E5000A80FB11DA35ABF4F2C91848D90E001962D
:100E60008F739927848FA689B7892C93A089B1891C
:100E70008C9180648C93938D848D981306C0028826
:100E8000F389E02D80818F7D80830895CF93DF9358
:100E9000EC01888D8823C9F0EA89FB89808185FD72
:100EA00005C0A889B9898C9186FD0FC00FB607FCD3
:100EB000F5CF808185FFF2CFA889B9898C9185FF14
:100EC000EDCFCE010E942507E7CFDF91CF910895A6
:100ED000CF92DF92FF920F931F93CF93DF931F92D6
:100EE000CDB7DEB76C0181E0D60158968C93589748
:100EF0005B969C915B975C968C915C97981307C06E
:100F00005096ED91FC915197808185FD2EC0F601A0
:100F1000038D10E00F5F1F4F0F731127F02EF601A6
:100F2000848DF81211C00FB607FCF9CFD601509688
:100F3000ED91FC915197808185FFF1CFC6016983C6
:100F40000E9425076981EBCF838DE80FF11DE35ADD
:100F5000FF4F6083D6015B960C935B975296ED91A1
:100F6000FC915397808180620CC0D6015696ED911A
:100F7000FC91579760835096ED91FC915197808139
:100F80008064808381E090E00F90DF91CF911F918A
:100F90000F91FF90DF90CF900895BF92CF92DF9294
:100FA000EF92FF92CF93DF93EC016A017B01B22EA7
:100FB000E889F98982E08083411581EE580761054F
:100FC0007105A1F060E079E08DE390E0A701960162
:100FD0000E94010B2150310941095109569547954D
:100FE00037952795211580E1380798F0E889F98928
:100FF000108260E874E88EE190E0A70196010E94FB
:10100000010B2150310941095109569547953795F2
:101010002795EC85FD853083EE85FF852083188E2E
:10102000EC89FD89B082EA89FB89808180618083B7
:10103000EA89FB89808188608083EA89FB898081D5
:1010400080688083EA89FB8980818F7D8083DF913E
:10105000CF91FF90EF90DF90CF90BF9008951F92B7
:101060000F920FB60F9211242F938F939F93EF93AC
:10107000FF93E091F404F091F5048081E091FA048B
:10108000F091FB0482FD12C090818091FD048F5F7E
:101090008F732091FE04821751F0E091FD04F0E07F
:1010A000EC51FB4F958F8093FD0401C08081FF912F
:1010B000EF919F918F912F910F900FBE0F901F90E6
:1010C00018951F920F920FB60F9211242F933F93F2
:1010D0004F935F936F937F938F939F93AF93BF9340
:1010E000EF93FF9384EE94E00E942507FF91EF9128
:1010F000BF91AF919F918F917F916F915F914F9130
:101100003F912F910F900FBE0F901F90189584EE76
:1011100094E00E94EA0621E0892B09F420E0822F66
:1011200008951092E7041092E60488EE93E0A0E0A0
:10113000B0E08093E8049093E904A093EA04B093AC
:10114000EB0485EC91E09093E5048093E40485EC56
:1011500090E09093F1048093F00484EC90E09093FD
:10116000F3048093F20480EC90E09093F504809374
:10117000F40481EC90E09093F7048093F60482EC01
:1011800090E09093F9048093F80486EC90E09093BB
:10119000FB048093FA041092FD041092FE04109256
:1011A000FF0410920005089508950E9417060E94FA
:1011B000D4080E94A400C7E1D7E00E9489012097CB
:1011C000E1F30E941707F9CFCF92DF92EF92FF92DF
:1011D0000F931F93CF93DF937C016A01EB0100E033
:1011E00010E00C151D0571F06991D701ED91FC918E
:1011F0000190F081E02DC7010995892B19F00F5F4F
:101200001F4FEFCFC801DF91CF911F910F91FF903A
:10121000EF90DF90CF9008956115710581F0DB01AB
:101220000D900020E9F7AD0141505109461B570BC5
:10123000DC01ED91FC910280F381E02D099480E0C6
:1012400090E00895DC01ED91FC91DB0114964D9145
:101250005C9115976D917C910280F381E02D09944A
:101260000C940C0966E771E00C940C090F931F9322
:10127000CF93DF93EC010E9422098C01CE010E94E2
:101280003209800F911FDF91CF911F910F91089527
:101290000F931F93CF93DF93EC010E940C098C01F5
:1012A000CE010E943209800F911FDF91CF911F91D3
:1012B0000F9108958F929F92AF92BF92CF92DF923B
:1012C000EF92FF920F931F93CF93DF93CDB7DEB7CB
:1012D000A1970FB6F894DEBF0FBECDBF7C01C42E20
:1012E000E52FCB01D22E19A221E02D1510F02AE016
:1012F000D22E8E010F5D1F4F8D2C912CA12CB12C65
:101300006C2D7E2FA50194010E94010B8C2DD29E85
:1013100080191124015011098A3014F4805D01C034
:10132000895CF8018083211531054105510521F0C3
:10133000C22EE32FCA01E4CFB801C7010E940C09F5
:10134000A1960FB6F894DEBF0FBECDBFDF91CF914F
:101350001F910F91FF90EF90DF90CF90BF90AF90D3
:101360009F908F9008952115310541F4DC01ED9196
:10137000FC910190F081E02D642F09940C945A099E
:101380009A01462F50E060E070E00C94B309FC0134
:10139000808191810C94F40BCF93DF93EC018881D1
:1013A0009981009711F00E94F40B198218821D8216
:1013B0001C821B821A82DF91CF9108950F931F9395
:1013C000CF93DF93EC018B016F5F7F4F8881998111
:1013D0000E94830C009731F0998388831B830A83D2
:1013E00081E001C080E0DF91CF911F910F910895BE
:1013F000CF93DF93EC0188819981892B29F08A8131
:101400009B818617970760F4CE010E94DE0988232E
:1014100041F08C819D81892B19F4E881F98110823A
:1014200081E0DF91CF910895EF92FF920F931F9388
:10143000CF93DF93EC017B018A01BA010E94F80986
:10144000811104C0CE010E94CC0907C01D830C830A
:10145000B701888199810E94560DCE01DF91CF910D
:101460001F910F91FF90EF900895FC01118210825F
:1014700013821282158214826115710559F0FB01E5
:1014800001900020E9F7AF0141505109461B570B6D
:101490000C94140A0895CF93DF93EC01FB01861797
:1014A000970761F0608171816115710529F04481B0
:1014B00055810E94140A02C00E94CC09CE01DF911E
:1014C000CF910895CF93DF93EC016115710561F021
:1014D000FB0101900020E9F7AF0141505109461B83
:1014E000570B0E94140A02C00E94CC09CE01DF9162
:1014F000CF910895EF92FF920F931F93CF93DF93B5
:10150000EC017B010C811D816115710511F480E0F6
:1015100016C04115510591F0040F151FB8010E9426
:10152000F8098823A1F3288139818C819D81B70135
:10153000820F931F0E94560D1D830C8381E0DF9163
:10154000CF911F910F91FF90EF900895CF93DF936C
:1015500000D0CDB7DEB769831A8241E050E0BE010A
:101560006F5F7F4F0E947A0A0F900F90DF91CF91AB
:101570000895FA01DB0114964D915C911597DC01F9
:1015800014962D913C911597241B350B2E173F0770
:1015900088F08D919C91009769F0DB016D917C91B1
:1015A0006115710539F08E0F9F1F0E945D0D21E0BE
:1015B000892B09F020E0822F0895FC014481558198
:1015C000FB01248135814217530720F040E050E0B1
:1015D0000C94B90A80E00895089597FB072E16F43D
:1015E000009407D077FD09D00E94420B07FC05D07C
:1015F0003EF4909581959F4F0895709561957F4F2A
:101600000895A1E21A2EAA1BBB1BFD010DC0AA1F43
:10161000BB1FEE1FFF1FA217B307E407F50720F05B
:10162000A21BB30BE40BF50B661F771F881F991FD6
:101630001A9469F760957095809590959B01AC011F
:10164000BD01CF010895052E97FB1EF400940E9462
:101650003A0B57FD07D00E94010B07FC03D04EF454
:101660000C943A0B50954095309521953F4F4F4F34
:101670005F4F089590958095709561957F4F8F4F3E
:101680009F4F0895AA1BBB1B51E107C0AA1FBB1F98
:10169000A617B70710F0A61BB70B881F991F5A95FE
:1016A000A9F780959095BC01CD010895EE0FFF1F1D
:1016B0000590F491E02D0994CF93DF93823091054A
:1016C00010F482E090E0E0918305F091840520E041
:1016D00030E0A0E0B0E0309739F140815181481707
:1016E0005907B8F04817590771F482819381109710
:1016F00029F013969C938E9312972CC09093840597
:101700008093830527C02115310531F04217530717
:1017100018F0A901DB0101C0EF019A01BD01DF0151
:101720000280F381E02DD7CF21153105F9F0281B78
:10173000390B2430310580F48A819B816115710554
:1017400021F0FB019383828304C0909384058093EE
:101750008305FE01329644C0FE01E20FF31F819320
:10176000919322503109398328833AC02091810511
:1017700030918205232B41F4209102013091030125
:101780003093820520938105209100013091010161
:101790002115310541F42DB73EB740910401509118
:1017A0000501241B350BE0918105F0918205E217BC
:1017B000F307A0F42E1B3F0B2817390778F0AC0174
:1017C0004E5F5F4F2417350748F04E0F5F1F509351
:1017D0008205409381058193919302C0E0E0F0E09F
:1017E000CF01DF91CF910895CF93DF93009709F454
:1017F00087C0FC01329713821282C0918305D09179
:101800008405209781F420813181280F391F809130
:101810008105909182058217930779F5F0938205EF
:10182000E09381056DC0DE0120E030E0AE17BF0718
:1018300050F412964D915C9113979D0141155105FD
:1018400009F1DA01F3CFB383A28340815181840F80
:10185000951F8A179B0771F48D919C911197840FA6
:10186000951F02969183808312968D919C91139778
:10187000938382832115310529F4F0938405E09345
:1018800083053EC0D9011396FC93EE9312974D91B8
:101890005D91A40FB51FEA17FB0779F48081918150
:1018A000840F951F0296D90111969C938E93828185
:1018B000938113969C938E931297E0E0F0E08A81D7
:1018C0009B81009719F0FE01EC01F9CFCE01029641
:1018D00028813981820F931F2091810530918205E3
:1018E0002817390769F4309729F41092840510926B
:1018F000830502C013821282D0938205C0938105B2
:10190000DF91CF910895A0E0B0E0E9E8FCE00C940D
:101910006F0DEC01CB01209719F40E945C0BB8C04D
:10192000FE01E60FF71F9E0122503109E217F3076F
:1019300008F4ACC0D9010D911C9111970617170737
:10194000B8F00530110508F49FC0A80144505109B2
:101950004617570708F498C002501109061B170BC9
:10196000019311936D937C93CF010E94F40B8CC073
:101970005B01A01AB10A4E01800E911EA091830551
:10198000B0918405612C712C60E070E0109709F42F
:1019900049C0A815B905C9F5ED90FC9011976701EC
:1019A00042E0C40ED11CCA14DB0478F147018A1846
:1019B0009B08640142E0C40ED11C1296BC901297A1
:1019C0001396AC91B5E0CB16D10440F0B282A3835C
:1019D00091828082D9018D939C9309C00E5F1F4F25
:1019E0000E0D1F1DF90111830083EB2DFA2F6115D8
:1019F000710531F0DB011396FC93EE93129744C00E
:101A0000F0938405E09383053FC06D917C9111971D
:101A10006616770608F43B01BD0112960D90BC9145
:101A2000A02DB4CF6091810570918205681579056C
:101A3000E9F468167906D0F4409100015091010153
:101A40004115510541F44DB75EB7609104017091A5
:101A50000501461B570BE417F507C0F4F093820508
:101A6000E0938105F901918380830EC00E945C0B95
:101A70007C01009759F0A801BE010E944D0DCE01D6
:101A80000E94F40BC70104C0CE0102C080E090E0C8
:101A9000CDB7DEB7EEE00C948B0DFB01DC0102C08C
:101AA00001900D9241505040D8F70895FB01DC01A0
:101AB00001900D920020E1F70895FB01DC014150F7
:101AC000504030F08D910190801919F40020B9F741
:101AD000881B990B08952F923F924F925F926F92BD
:101AE0007F928F929F92AF92BF92CF92DF92EF92AE
:101AF000FF920F931F93CF93DF93CDB7DEB7CA1B2F
:101B0000DB0B0FB6F894DEBF0FBECDBF09942A8859
:101B1000398848885F846E847D848C849B84AA8401
:101B2000B984C884DF80EE80FD800C811B81AA818E
:101B3000B981CE0FD11D0FB6F894DEBF0FBECDBF59
:101B4000ED01089510E0C6ECD0E004C0FE010E9453
:0E1B5000580B2296C83CD107C9F7F894FFCF76
:101B5E0000008505800003000200564D4450565F7C
:101B6E00317C315F564D4450560D0A0024005346C9
:101B7E002C310053542C3235350053552C39363018
:101B8E003000522C31004B2C31005365747570446B
:101B9E006F6E65007E0055414420636F6D6D616E02
:101BAE00642073746F72656400000000005D02E4CF
:101BBE0008CA023C02B002AF02564D4450435F00C9
:101BCE005F564D4450430D0A004572726F723A20B3
:101BDE00417474656D707420746F20736574206128
:101BEE0020726561642D6F6E6C7920766172696109
:101BFE00626C65206F722064617461207479706507
:101C0E00206E6F7420737570706F727465640D0A38
:101C1E0000000000006807E408EA060307F5064620
:101C2E00076E616E00696E66006F7666002E0000AC
:00000001FF
