:100000000C94AC000C94D4000C94D4000C94D50A3D
:100010000C94D50A0C94D50A0C94D4000C94D400FA
:100020000C94D4000C94D4000C94D4000C940015BF
:100030000C94D4000C94D4000C94D4000C94D400F0
:100040000C949F190C94D4000C94651C0C94971C70
:100050000C94D4000C94D4000C94D4000C94D400D0
:100060000C94D3130C94D4001710241028102E10C5
:1000700034104910521059105E106410641064104E
:1000800064106410641064106410641064106410D0
:1000900064106410641064106410641064106410C0
:1000A000641064106410641017101D1024102810C0
:1000B0002E1034103A103E104310000000080002C9
:1000C000010000030407000000000000000001021E
:1000D00004081020408001020408102001020408D6
:1000E00010200404040404040404020202020202B4
:1000F000030303030303000000002300260029007C
:1001000000000000250028002B0000000000240053
:1001100027002A004E414E494E495459494E46CD7A
:10012000CCCC3D0AD7233C17B7D13877CC2B3295AE
:1001300095E6241FB14F0A000020410000C842008C
:10014000401C4620BCBE4CCA1B0E5AAEC59D740056
:1001500007135C16C71CA61611241FBECFEFD8E0EC
:10016000DEBFCDBF13E0A0E0B1E0E0E9FFE402C0F4
:1001700005900D92AE31B107D9F727E0AEE1B3E0BB
:1001800001C01D92AA37B207E1F711E0C6E5D1E040
:1001900004C02297FE010E945423C035D107C9F73D
:1001A0000E940B1D0C94BB270C940000FC01718372
:1001B000608353834283089526E231E0FC0131835A
:1001C00020830895089526E231E0FC0131832083E5
:1001D000089526E231E0FC01318320830C941A1D3E
:1001E00026E231E0FC01318320830C941A1D0F9329
:1001F0001F93CF93DF938C01EB0188E2FB011192F7
:100200008A95E9F74BE050E06BE171E0CE010E9486
:1002100052271B8641E050E060E070E04C875D872C
:100220006E877F87F8014381548165817681488B91
:10023000598B6A8B7B8B46E050E060E070E04C8B22
:100240005D8B6E8B7F8B1CA21DA21EA21FA240E0A5
:1002500050E869E874E4488F598F6A8F7B8F40E0DB
:1002600050E066E973E44C8F5D8F6E8F7F8F4AE0BC
:1002700057ED63E27CE348A359A36AA37BA3DF9114
:10028000CF911F910F910895CF92DF92EF92FF923D
:100290008091290390912A03481B590B6109710928
:1002A000A0912703B09128039A01AB010E94582323
:1002B0006B017C018FE0F594E794D794C7948A95FD
:1002C000D1F76091310370913203882777FD8095D3
:1002D000982F2BE0660F771F881F991F2A95D1F75B
:1002E0002091330330913403442737FD4095542F38
:1002F0002C0D3D1D4E1D5F1D0E9433232C0D3D1DF9
:100300004E1D5F1DCA01B901FF90EF90DF90CF90A5
:10031000089524E331E0FC01318320834383548337
:10032000658376830895CF93C82F67E780EB93E0CA
:100330000E94831264EF80EB93E00E9444126C2FC2
:1003400080EB93E00E94441280EB93E0CF910C94F9
:1003500004131F93CF93DF93182FEB0167E780EB14
:1003600093E00E948312612F80EB93E00E9444127D
:1003700080EB93E00E94041341E067E780EB93E099
:100380000E94011380EB93E00E94F411888380EBBC
:1003900093E0DF91CF911F910C9404131F93CF939F
:1003A000DF93182FEB0167E780EB93E00E94831245
:1003B000612F80EB93E00E94441280EB93E00E9457
:1003C000041342E067E780EB93E00E94011380EBA7
:1003D00093E00E94F411182F80EB93E00E94F41137
:1003E00020E030E0312F822B932B9983888380EBA0
:1003F00093E0DF91CF911F910C9404130F931F93FF
:10040000CF93DF9300D0CDB7DEB78C018EE20E9490
:10041000930165E070E080E090E00E94181ABE0150
:100420006F5F7F4F86EF0E94CE0149815A8160E065
:1004300070E0F80140835183628373830F900F90C3
:10044000DF91CF911F910F9108953F924F925F924C
:100450006F927F928F929F92AF92BF92CF92DF92D4
:10046000EF92FF920F931F93CF93DF93CDB7DEB739
:1004700061970FB6F894DEBF0FBECDBF8C01798BAC
:10048000688B19821A821B821C82CE0101960E94FF
:10049000FE0180911E038295880F880F807C8C5C02
:1004A0000E94930180911E03813069F038F0823000
:1004B00079F46EE070E080E090E00EC065E070E0FE
:1004C00080E090E009C068E070E080E090E004C067
:1004D0006AE170E080E090E00E94181ABE016B5F54
:1004E0007F4F86EF0E94CE018D819E81A0E0B0E01B
:1004F0002227382F492F5A2F288739874A875B8729
:10050000BE01695F7F4F88EF0E94A90130901E03F2
:100510008F81288539854A855B85280F311D411DCE
:10052000511D88E090E08319910904C055954795C5
:10053000379527958A95D2F7288739874A875B8729
:1005400049815A816B817C81C8010E9444014B0121
:100550005C0130EA831A3FE0930AA108B108A501C3
:100560009401C501B4010E94ED222B013C016CE015
:1005700075946794579447946A95D1F7E0911F0357
:10058000F0912003A0912303B09124030E946323E0
:100590006B017C017DE0F594E794D794C7947A953C
:1005A000D1F7A0912B03B0912C03A30192010E94DB
:1005B0006323BB2797FDB095AB2FC80ED91EEA1E4B
:1005C000FB1E42E0C40ED11CE11CF11CB2E0F5940C
:1005D000E794D794C794BA95D1F750E8D50EE11CAB
:1005E000F11CA0912503B0912603A70196010E945A
:1005F0005823DC01CB011FE0B695A7959795879509
:100600001A95D1F78C879D87AE87BF876F01EE243F
:10061000D7FCE094FE2C02E0CC0CDD1CEE1CFF1C91
:100620000A95D1F7A0912D03B0912E03A301920159
:100630000E9463232B013C018BE0759467945794CF
:1006400047948A95D1F7A0912103B0912203A50187
:1006500094010E9463232BE0959587957795679584
:100660002A95D1F7460E571E681E791EC40CD51C5C
:10067000E61CF71C032C04C0CC0CDD1CEE1CFF1C7C
:100680000A94D2F792E0C90ED11CE11CF11C32E0B1
:10069000F594E794D794C7943A95D1F7288539858E
:1006A0004A855B852C193D094E095F0960E573ECAD
:1006B00080E090E004C095958795779567953A948A
:1006C000D2F70E94ED2297FD0DC0660F771F881F9D
:1006D000991F2C853D854E855F850E941123490118
:1006E0005A010CC02C853D854E855F850E941123E3
:1006F00049015A01880C991CAA1CBB1C9927B7FCFC
:100700009A958B2D7A2D692D9B01AC010E94ED22CB
:100710009B01AC01AEEDBBE00E9458236C01FF24AD
:10072000D7FCF094EF2CA3E4B3EEA50194010E9452
:100730006623BB2797FDB095AB2FC80ED91EEA1EC6
:10074000FB1EAFECCA0EAEE0DA1EE11CF11CF4E0B9
:10075000F594E794D794C794FA95D1F7C80CD91CAF
:10076000EA1CFB1CC701B6010E94D221E889F98965
:10077000608371838283938361960FB6F894DEBFA2
:100780000FBECDBFDF91CF911F910F91FF90EF90E2
:10079000DF90CF90BF90AF909F908F907F906F90A1
:1007A0005F904F903F9008950F931F93CF93DF93E7
:1007B00000D000D0CDB7DEB78B0124E2FB0111924F
:1007C0002A95E9F744E250E060E070E0F8014083E8
:1007D000518362837383FC014381548165817681F7
:1007E000F801448355836683778346E050E060E0F8
:1007F00070E04087518762877387108A118A128A56
:10080000138ABE016F5F7F4F0E94250220E030E017
:1008100048EC52E469817A818B819C810E94372166
:10082000F801648B758B868B978B81E00F900F900E
:100830000F900F90DF91CF911F910F910895FC01C0
:10084000658B089526E231E0FC0131832083089511
:1008500026E231E0FC0131832083089526E231E075
:10086000FC01318320830C941A1D26E231E0FC0147
:10087000318320830C941A1D0F931F93CF93DF9322
:100880008C01EB0188E2FB0111928A95E9F74BE0BC
:1008900050E06EE371E0CE010E9452271B8641E0DA
:1008A00050E060E070E04C875D876E877F87F801DD
:1008B0000785108921893289088B198B2A8B3B8BFC
:1008C0004C8B5D8B6E8B7F8B1CA21DA21EA21FA268
:1008D000188E198E1A8E1B8E1C8E1D8E1E8E1F8ECC
:1008E00018A219A21AA21BA2DF91CF911F910F91FA
:1008F00008950F931F93CF93DF938C01EB0188E250
:10090000FB0111928A95E9F74BE050E06EE371E04C
:10091000CE010E9452271B8641E050E060E070E06B
:100920004C875D876E877F87F8014189528963898B
:100930007489488B598B6A8B7B8B42E050E060E076
:1009400070E04C8B5D8B6E8B7F8B1CA21DA21EA258
:100950001FA2188E198E1A8E1B8E1C8E1D8E1E8E37
:100960001F8E18A219A21AA21BA2DF91CF911F916C
:100970000F910895DC01ED91FC910190F081E02D43
:10098000099429E431E0FC01318320834787508BAF
:10099000618B728B0895FC0187E591E091838083E0
:1009A000418B528B638B748B158A0895CF93DF93A1
:1009B00000D0CDB7DEB780EB93E02A8349830E9455
:1009C00083124981642F80EB93E00E9444122A81B4
:1009D000622F80EB93E00E94441280EB93E00F9033
:1009E0000F90DF91CF910C9404130F931F93CF932B
:1009F000DF938C01EB01262F41E06EE10E94D604CB
:100A0000F801D483C383C038D10509F45BC0DCF49A
:100A1000C034D105A9F1C036D10509F442C0A09770
:100A200009F08AC080E090E8A9E8B4E480930A0164
:100A300090930B01A0930C01B0930D0180E090E026
:100A4000A5E7B4E471C0C03CD10509F44CC0C03E78
:100A5000D10509F459C0C03AD10509F06DC080E054
:100A600090E0A8ECB3E480930A0190930B01A0936B
:100A70000C01B0930D0180E090E8A1EBB3E454C009
:100A800080E090ECA5E5B4E480930A0190930B011B
:100A9000A0930C01B0930D0180E090E0AEE3B4E4CC
:100AA00043C080E090E8A7E2B4E480930A01909309
:100AB0000B01A0930C01B0930D0180E090E0A6E142
:100AC000B4E432C080E090E0A1EEB3E480930A0188
:100AD00090930B01A0930C01B0930D0180E090E086
:100AE000A8ECB3E421C080E090E0A5EAB3E48093F1
:100AF0000A0190930B01A0930C01B0930D0180E0CB
:100B000090E8A3E9B3E410C080E090E0A6E6B3E487
:100B100080930A0190930B01A0930C01B0930D01F7
:100B200080E090E0ADE4B3E4809306019093070188
:100B3000A0930801B0930901DF91CF911F910F910C
:100B400008951F93CF93DF931F92CDB7DEB7162F73
:100B500080EB93E049830E9483124981642F80EBEC
:100B600093E00E94441280EB93E00E94041341E062
:100B7000612F80EB93E00E94011380EB93E00E94D1
:100B8000F411182F80EB93E00E940413812F0F9033
:100B9000DF91CF911F9108956F927F928F929F92D4
:100BA000AF92BF92CF92DF92EF92FF920F931F937B
:100BB000CF93DF93EC0169E180EB93E00E94831215
:100BC00068EA70E080EB93E00E94BA0480EB93E067
:100BD0000E94041346E069E180EB93E00E94011358
:100BE00080EB93E00E94EC110697D4F380EB93E046
:100BF0000E94F411782E80EB93E00E94F411682E8D
:100C000080EB93E00E94F411982E80EB93E00E9419
:100C1000F411882E80EB93E00E94F411D82E80EB23
:100C200093E00E94F411C82EB62CA12CA72884E0D2
:100C3000B594A7948A95E1F7B501882777FD80954B
:100C4000982F0E94D2216B837C838D839E83F82C06
:100C5000E12CE92894E0F594E7949A95E1F7B7013F
:100C6000882777FD8095982F0E94D2216F837887FF
:100C700089879A871C2D00E00D2924E0159507959A
:100C80002A95E1F7B801882777FD8095982F0E9473
:100C9000D2216B877C878D879E87DF91CF911F91B3
:100CA0000F91FF90EF90DF90CF90BF90AF909F900B
:100CB0008F907F906F9008950F931F93CF93DF9342
:100CC0008C01EB0184E2FB0111928A95E9F7C801DE
:100CD0000E94CC0584E290E0A0E0B0E08883998394
:100CE000AA83BB83F80187859089A189B2898C8307
:100CF0009D83AE83BF8381E090E0A0E0B0E0888771
:100D00009987AA87BB870E94E919688B798B8A8BA0
:100D10009B8B2FE632E143E85AE3F801638174814B
:100D2000858196810E9486222AE038EE4CE151E4CA
:100D30000E9486226C8B7D8B8E8B9F8B2FE632E1FF
:100D400043E85AE3F80167817085818592850E94A6
:100D500086222AE038EE4CE151E40E948622688F18
:100D6000798F8A8F9B8F2FE632E143E85AE3F801AF
:100D700063857485858596850E9486222AE038EEF3
:100D80004CE151E40E9486226C8F7D8F8E8F9F8F65
:100D900081E0DF91CF911F910F9108956F927F9223
:100DA0008F929F92AF92BF92CF92DF92EF92FF927B
:100DB0000F931F93CF93DF93EC016EE180EB93E0F1
:100DC0000E94831263E070E080EB93E00E94BA041B
:100DD00080EB93E00E94041346E06EE180EB93E029
:100DE0000E94011380EB93E00E94EC110697D4F36C
:100DF00080EB93E00E94F411682E80EB93E00E9458
:100E0000F411782E80EB93E00E94F411C82E80EB51
:100E100093E00E94F411D82E80EB93E00E94F4112D
:100E2000882E80EB93E00E94F411982EB62CA12C12
:100E3000A728B501882777FD8095982F0E94D22199
:100E40006D837E838F839887F82CE12CE928B70186
:100E5000882777FD8095982F0E94D22169877A870D
:100E60008B879C871C2D00E00D29B801882777FD12
:100E70008095982F0E94D2216D877E878F87988BCF
:100E8000DF91CF911F910F91FF90EF90DF90CF9066
:100E9000BF90AF909F908F907F906F9008952F920A
:100EA0003F924F925F926F927F928F929F92AF92FA
:100EB000BF92CF92DF92EF92FF920F931F93CF9347
:100EC000DF93EC018B0184E2FB0111928A95E9F733
:100ED00049E06EE1CE010E94A10580FFF3C0CE0182
:100EE0000E94CE068D89882309F483C04D805E80E0
:100EF0006F80788489849A84AB84BC84CD84DE84BA
:100F0000EF84F8882224239420E030E04FEF54EC63
:100F1000C301B2010E94332118160CF4212C332492
:100F2000339420E030E04FEF54E4C301B2010E945B
:100F3000822287FD312C32286624639420E030E041
:100F40004FEF54E4C501B4010E94822287FD612C59
:100F500063287724739420E030E04FEF54ECC50110
:100F6000B4010E94332118160CF4712C7628BB248E
:100F7000B39420E030E04FEF54E4C701B6010E9483
:100F8000822287FDB12C7B2851F420E030E04FEF26
:100F900054ECC701B6010E943321181654F18B811D
:100FA0009C8180369105E1F04CF480329105D9F0B6
:100FB00080349105F1F460E670E017C0803A910545
:100FC00061F0803C910531F08038910591F460EA40
:100FD00070E00BC060EE70E008C060EC70E005C02F
:100FE00060E870E002C060E470E0CE010E94F504A9
:100FF0006FCF84E290E0A0E0B0E0F80180839183BD
:10100000A283B38389899A89AB89BC8984839583B8
:10101000A683B78382E090E0A0E0B0E0808791876C
:10102000A287B3870E94E919F801608B718B828BCC
:10103000938BC0900A01D0900B01E0900C01F090CE
:101040000D01A70196016D817E818F8198850E9497
:10105000372120E030E048EC52E40E948622F8017B
:10106000648B758B868B978BA701960169857A8532
:101070008B859C850E94372120E030E048EC52E4CB
:101080000E948622F801608F718F828F938F20914A
:1010900006013091070140910801509109016D85C9
:1010A0007E858F8598890E94372120E030E048ECCA
:1010B00052E40E948622F801648F758F868F978F85
:1010C00081E001C080E0DF91CF911F910F91FF90EF
:1010D000EF90DF90CF90BF90AF909F908F907F90D8
:1010E0006F905F904F903F902F900895CF93DF9334
:1010F000EC0160E08E810E94E81A81E090E00E949D
:10110000401A61E08E810E94E81A81E090E00E941E
:10111000401A60E08E810E94E81A84E690E0DF9138
:10112000CF910C94401AEF92FF920F931F93CF939D
:10113000DF938C01C0E0D0E0E62EF12CB7010C2E3D
:1011400002C0759567950A94E2F76170F801EC0F9B
:10115000FD1F87810E94E81A2196C430D10571F7DE
:10116000C801DF91CF911F910F91FF90EF900C94E8
:101170007608EF92FF920F931F93CF93DF938C012A
:10118000C0E0D0E0E62EF12CB7010C2E02C0759520
:1011900067950A94E2F76170F801EC0FFD1F8781F3
:1011A0000E94E81A2196C830D10571F7C801DF9175
:1011B000CF911F910F91FF90EF900C9476081F93A1
:1011C000CF93DF93EC01162F642F8C810E94E81AD5
:1011D0008D818F3F19F060E00E94E81A8F85612FA2
:1011E00084FF06C0CE01DF91CF911F910C94B90806
:1011F00070E084E0759567958A95E1F7CE010E94CD
:101200009308612FCE01DF91CF911F910C94930829
:1012100040E00C94DF0861E00E94080980ED97E04F
:101220000C94401A443008F043E0FC012389421733
:1012300010F04FEF420FFC01E40FF11D2489260F3F
:101240002068622F0C940809FC016089262F246015
:10125000208B6C600C9408090F931F93CF93DF933E
:10126000EC01423018F08F8588608F874B8B1C8A89
:1012700080E48D8B6E8B70E0605C7F4F6F8B2223E0
:1012800029F0413019F48F8584608F8761E08C816B
:101290000E94AF1A8D818F3F19F061E00E94AF1A52
:1012A00061E08E810E94AF1A00E010E08F8584FF1C
:1012B00003C088E090E002C084E090E008171907BE
:1012C00054F4FE01E00FF11F61E087810E94AF1A24
:1012D0000F5F1F4FEBCF80E593EC0E94401A60E058
:1012E0008C810E94E81A60E08E810E94E81A8D814C
:1012F0008F3F19F060E00E94E81A6F8564FD1DC001
:1013000063E0CE010E94930884E991E10E94401AB3
:1013100063E0CE010E94930884E991E10E94401AA3
:1013200063E0CE010E94930886E990E00E94401A93
:1013300062E0CE010E94930816C06062CE010E9456
:10134000080984E991E10E94401A6F856062CE012C
:101350000E94080986E990E00E94401A6F85606249
:10136000CE010E9408096F856062CE010E940809C3
:1013700084E0888BCE010E942409CE010E940B09D3
:1013800082E0898B66E0CE01DF91CF911F910F91B2
:101390000C940809CF92EF920F93FC0113821282F2
:1013A00085E691E09183808364838FEF8583468314
:1013B00027830087E186C2861386148615861686E3
:1013C000178620E041E060E1CF010F91EF90CF90D0
:1013D0000C942C0941E00E94DF0881E090E0089520
:1013E000209177033091780328173907B9F4909149
:1013F000350380913603981789F0E0913503F0E0CA
:10140000E95CFC4F80812091350330E02F5F3F4F36
:101410002F7333272093350390E008958FEF9FEFCC
:1014200008951F93CF93DF93DC015C968D919C917F
:101430005D97009749F481E090E013969C938E931A
:10144000129780E090E03BC05196ED91FC9152974D
:1014500050962C915097322F30951FB75E964C9135
:101460005E9741FB772770F941FD6095F8944081C4
:10147000772311F0422B01C043234083EC012197D5
:10148000F1F748E0508160FF02C0522B01C05323A6
:101490005083EC012197F1F76695415099F78081CF
:1014A000772311F0832301C0822B80831FBF5C96BA
:1014B0008D919C915D970197F1F781E090E0DF912C
:1014C000CF911F910895089520917703309178036B
:1014D0002817390781F490913503809136039817C6
:1014E00051F0E0913503F0E0E95CFC4F80819927F1
:1014F00087FD909508958FEF9FEF089520917703D2
:10150000309178032817390771F4809136032091C0
:10151000350390E0805C9F4F821B910960E470E08E
:101520000E94FD22089580E090E00895E091770305
:10153000F0917803E817F90769F4A389B4899C91BD
:101540008589809589238C93109278031092770374
:1015500081E0089580E00895CF93DF93EC018A8DB8
:101560009B8D892BF1F080917703909178038C17F4
:101570009D07B9F0009711F00E94960A8E8D8E7F1C
:101580008E8F1092360310923503D0937803C09358
:101590007703EB89FC8980819D89892B808381E099
:1015A00001C080E0DF91CF9108951F920F920FB696
:1015B0000F9211242F933F934F935F936F937F93D9
:1015C0008F939F93AF93BF93EF93FF93E091770334
:1015D000F0917803309709F451C0868DA685B785C0
:1015E000958581FF04C08C91892329F447C08C9193
:1015F000892309F043C0A389B4899C91858980958A
:1016000089238C93868997890197F1F7208D318DF5
:10161000A685B785758558E040E0C9010197F1F7C7
:10162000842F90E095958795482F6C91672309F05A
:101630004068515091F7868D81FD40958091360329
:1016400090E001968F73992720913503281749F070
:10165000A0913603B0E0A95CBC4F4C938093360355
:1016600003C0868D8160868F828D938D0197F1F7FF
:10167000A389B4898C919589892B8C93FF91EF91E3
:10168000BF91AF919F918F917F916F915F914F919A
:101690003F912F910F900FBE0F901F9018952DE640
:1016A00031E0FC01318320830C94960A1F93CF9381
:1016B000DF93EC01162F6E8D6695617081E06827CF
:1016C000812F0E94E81A61E0812F0E94AF1A812FBA
:1016D00090E0FC01E253FF4FE491E88BFC01EE51F6
:1016E000FF4FE491F0E0EE0FFF1FE050FF4F8591B8
:1016F00094919A8B898BDF91CF911F9108951F93BD
:10170000CF93DF93EC01162F60E0812F0E94AF1A78
:101710008E8D81FD04C061E0812F0E94E81A1C8734
:10172000812F90E0FC01E253FF4FE491ED87FC0133
:10173000EE51FF4FE491F0E0EE0FFF1FEA50FF4F34
:10174000859194919F878E87DF91CF911F91089506
:10175000FF920F931F93CF93DF93EC01F62E522F3E
:101760001B821A8208EE13E020E030E00C831D8318
:101770002E833F838DE691E0998388831F8A1E8A9A
:10178000198E188E1B8E1A8E1D8E1C8E8E8D8E7F3E
:1017900050FB81F98E8F642FCE010E94560B6F2D66
:1017A000CE01DF91CF911F910F91FF900C947F0B91
:1017B000CF93DF93EC019A01AB011B8E1A8E198E29
:1017C000188E1F8A1E8A60E079E08DE390E00E9407
:1017D0003323C9012430310520F0B9016350710968
:1017E00002C061E070E07D8F6C8FEC85E63108F01F
:1017F00068C0B901769567956431710518F0635139
:10180000710902C061E070E07F8B6E8B069718F063
:10181000C901059702C081E090E0998F888FC901C6
:10182000880F991F820F931F969587959695879598
:101830008D30910510F00C9702C081E090E09B8FF5
:101840008A8F20916800E83050F091E0EE3008F483
:1018500090E081E001C0880F9A95EAF701C084E02A
:10186000822B809368002C85283038F02E3040F091
:10187000263148F48CE690E008C08DE690E005C083
:101880008BE690E002C080E090E09C8B8B8B283050
:1018900030F481E001C0880F2A95EAF70DC0822F4D
:1018A00090E02E3010F4089701C00E9791E001C02F
:1018B000990F8A95EAF7892F8D8B8C8D9D8D0197D5
:1018C000F1F7CE01DF91CF910C94AC0AFC011082AC
:1018D0001182138212821482158216821782108658
:1018E0001286118613861486158616861786118A27
:1018F000108A128A138A148A158A168A108E178AF9
:10190000118E128E138E148E158E12A213A214A293
:1019100015A216A217A210AA11AA12AA13AA14AAF3
:1019200015AA16AE17AEDC01AC5BBF4F1D921D921F
:101930001D921C92139718961C9211961C92119747
:1019400016961D921D921D921C9219971E961C921E
:1019500011961C92119716961D921D921D921C9223
:1019600019971E961C9211961C92119716961D920D
:101970001D921D921C9219971E961C9211961C92F4
:10198000119716961D921D921D921C9219971E96E4
:101990001C9211961C92509682E08C9311961C9288
:1019A00011961C9211961C92119611961C921E92E1
:1019B000129611961C921E9212961D921D921D92C5
:1019C0001C92139714961D921D921D921C921397B0
:1019D00014961D921D921D921C92139714961D929F
:1019E0001D921D921C921397EA57FF4F1082089583
:1019F0002FEB260F862F992787FD9095263010F420
:101A0000C79708956156663018F48755910908956F
:101A1000C0970895FF920F931F93CF93DF93EC012C
:101A2000FF24F39488818D3211F0F12C01C02196AE
:101A3000CE010E94E7269B01AC01A4E6B0E00E9423
:101A40005823FE014991242F332727FD3095205339
:101A500031092A303105A8F34E3241F5218133276F
:101A600027FD3095205331092A303105F8F44AE03A
:101A7000429F8001439F100D1124222717FD2095BE
:101A8000322F600F711F821F931F0281112707FDE4
:101A90001095005311090A30110540F4222717FD53
:101AA0002095322F600F711F821F931FFF2039F086
:101AB00090958095709561957F4F8F4F9F4FDF91E7
:101AC000CF911F910F91FF9008952F923F924F92C7
:101AD0005F926F927F928F929F92AF92BF92CF92BE
:101AE000DF92EF92FF920F931F93CF93DF93D82F44
:101AF000C92F8B010E94E72624E630E040E050E049
:101B00000E94112349015A019B01AC0160E876E96A
:101B100088E990E00E94ED226B017C01F80191823E
:101B20008082ED2FFC2F2191822F992787FD9095A0
:101B3000C0970A97C0F32E3239F51F0180E8882E2E
:101B400086E9982E88E9A82EB12C9AE0492E512CCE
:101B5000612C712CF101C1911F01DD27C7FDD095CA
:101B6000E097CA30D10580F4C501B401A301920108
:101B70000E94112349015A01DE010E946323C60E0F
:101B8000D71EE81EF91EE6CFA5E0B0E0A70196013A
:101B90000E9458236F5F7F4F8F4F9F4F23E030E0AD
:101BA00040E050E00E941123F801228333834483F4
:101BB00055831682DF91CF911F910F91FF90EF9087
:101BC000DF90CF90BF90AF909F908F907F906F905D
:101BD0005F904F903F902F900895CF93DF93EC014B
:101BE00087E0FE017096DE01129601900D928A95B3
:101BF000E1F787E0FE017796DE01199601900D92DC
:101C00008A95E1F70E94E9196E8F7F8F88A399A3C7
:101C100081E089838883DF91CF910895CF92DF920D
:101C2000EF92FF92CF93DF93EC0119826A817B815F
:101C300080E090E00E94D0216B017C016C817D816D
:101C40008E819F810E94D02128E23BE64EE65EE431
:101C50000E9437219B01AC01C701B6010E94CF2031
:101C6000288521119058DF91CF91FF90EF90DF9060
:101C7000CF900895CF92DF92EF92FF92CF93DF93B0
:101C8000EC01198269857A8580E090E00E94D0217C
:101C90006B017C016B857C858D859E850E94D021A2
:101CA00028E23BE64EE65EE40E9437219B01AC0150
:101CB000C701B6010E94CF202F8521119058DF91D6
:101CC000CF91FF90EF90DF90CF900895CF93DF9367
:101CD000EC014E815F81688579854A835B836C83E3
:101CE0007D830E94E9196A877B878C879D8781E0C5
:101CF00089838883DF91CF910895CF93DF93EC019F
:101D00004E815F81688579854A835B836C837D839F
:101D10000E94E9196A877B878C879D8781E0898388
:101D20008883DF91CF910895CF93DF93EC01CB01AE
:101D30000E940A0D6E837F8388879987DF91CF91F8
:101D40000895CF93DF93EC01CB010E94E7266E83C9
:101D50007F8388879987DF91CF910895CF93DF9311
:101D6000EC014A855B856C857D854E835F83688742
:101D700079870E94E9196A837B838C839D8381E044
:101D800089838883DF91CF910895CF93DF93EC010E
:101D9000CB010E940A0D6A877B878C879D87DF9124
:101DA000CF910895CF93DF93EC014A855B856C85D5
:101DB0007D854E835F83688779870E94E9196A83EE
:101DC0007B838C839D8381E089838883DF91CF919E
:101DD0000895CF93DF93EC01CB010E94E7266A8739
:101DE0007B878C879D87DF91CF910895CF93DF9379
:101DF000EC01BC0140960E944B270E94E91968A3A0
:101E000079A38AA39BA381E08DA38CA3DF91CF91BB
:101E1000089540E150E00C945227AF92BF92CF92C8
:101E2000DF92FF920F931F93CF93DF93EC01FC019E
:101E3000EB57FF4FF080FF2009F49CC03196608182
:101E40000E94F80C182FFE01E957FF4F6081CE0168
:101E50000E94F80C40E1149F800D1124FE01EC5704
:101E6000FF4F9081891376C0B59640815181628180
:101E700073814F5F5F4F6F4F7F4F4083518362830A
:101E800073838E0108561F4FD8018C91882369F007
:101E9000389740815181628173814F5F5F4F6F4FEF
:101EA0007F4F4083518362837383FE01EB56FF4F64
:101EB00080818823C9F0813089F5CE0182960E9405
:101EC000660ECE01C0960E947D0EF80180818823A7
:101ED00029F1CE010E94ED0DCE01CE960E94AE0EEC
:101EE000CE01845B9F4F18C0CE01C0960E947D0E2C
:101EF000D8018C91882341F0CE010E94ED0DCE01D6
:101F0000865A9F4F0E94AE0ECE0188599F4F0E9465
:101F1000D20ECE018A589F4F0E94AE0E8E010556FA
:101F20001F4FF801C081D181209709F4FEC0D8016C
:101F3000ED91FC9166A177A18EA19FA10E944227FD
:101F4000892B09F0F2C0CE010E94F60E0AA4DBA58F
:101F5000C02DEACFCB55DF4F488159816A817B8103
:101F60004F5F5F4F6F4F7F4F488359836A837B83F7
:101F7000F12CDBC06C01B6E9CB0ED11CF60130812F
:101F80008B569F4F5C018E0105561F4F311134C097
:101F90006E0196E8C90ED11C69E771E0C6010E9486
:101FA0004227892B11F481E00BC06FE771E0C60175
:101FB0000E944227892B19F4F501108203C082E0A8
:101FC000D5018C93C756DF4F88819981F8019183A1
:101FD0008083F801C081D181209709F4A6C0B601A1
:101FE0008EA19FA10E94422797FF9AC08AA59BA518
:101FF000D8018D939C93EDCFDC01EC91E23009F494
:1020000063C0CE018A579F4FDC012C91222309F433
:102010005BC0B0E2EB9FF0011124E32B3197E93272
:10202000F10508F051C0EC5CFF4F0C945223BC0149
:10203000CE01C0960E94940E47C0FE01E856FF4FA5
:1020400081E0213461F52CC0BE01605F7F4F09C083
:1020500081E0233509F080E08E8B36C0BE01695ED9
:102060007F4F0E94650D30C081E0273509F080E088
:102070008D8F2AC0BC01CE01CE9624C0BC01CE01FA
:10208000845B9F4F1FC0BC01CE0182960E94A10EAF
:102090001BC0FE01E856FF4F81E021330CF480E0C5
:1020A000808312C0BC01CE0188599F4F0E94E90E67
:1020B0000BC0BC01CE018A589F4F04C0BC01CE01A9
:1020C000865A9F4F0E94C50EF801A080B180CA5762
:1020D000DF4FA114B10449F1D801ED91FC9166A143
:1020E00077A1F50186A197A10E944227892BE9F4E7
:1020F000D50198962D913C919997F601808190E0B9
:102100008217930794F02817390721F4BE01C501FF
:102110000E94090FD5019A96AD90BC909B97D9CF9C
:10212000892B19F0D8011D921C928F2DDF91CF9130
:102130001F910F91FF90DF90CF90BF90AF900895C7
:10214000CF92DF92EF92FF920F931F93CF93DF9383
:102150001F92CDB7DEB76C01262FFC01E356FF4F6F
:1021600040815181628173814F5F5F4F6F4F7F4F1D
:1021700040835183628373838C0109561F4F8B57B1
:102180009F4F7C01243279F12CF42A3069F02D30F4
:10219000E1F50AC02A3241F02C32B9F5F601EC57CC
:1021A000FF4F808182278083F80180818F3060F427
:1021B000F601E80FF11DEA57FF4F1082C60129838F
:1021C0000E940D0F298101C080E0F601EA56FF4F01
:1021D00090819F5F9083F801108291E02A3209F08C
:1021E00090E0F70128C0F8011082F601EA56FF4F8F
:1021F000108272971082719682E08083F7011082BC
:10220000F601E856FF4F108218C0F80180818E3029
:1022100048F491E0980F9083F601E80FF11DEA571A
:10222000FF4F2083F7018081811107C0F601EC5731
:10223000FF4F90819227908301C080E00F90DF9143
:10224000CF911F910F91FF90EF90DF90CF90089565
:102250000F931F93CF93DF93EC01662359F00E94F5
:10226000E91969837A838B839C83DF91CF911F91D6
:102270000F9108950E94E91909811A812B813C81EF
:10228000601B710B820B930B643671058105910500
:1022900030F763E070E080E090E00E94181AEACF27
:1022A00060E00C942811FC0113AA14AA15AA16AA1E
:1022B0001182128213821482411551056105710544
:1022C00021F0CB01BA010C94181A0895FB01BA0150
:1022D000A901DC01D296FC93EE93D19726E0CF01C1
:1022E0000C94031C1F93CF93DF93EC01162F69EA24
:1022F00071E089A99AA90E94681D4AE050E0612F07
:1023000089A99AA90E94211E60EB71E089A99AA966
:102310000E94681D62E370E080E090E0DF91CF9161
:102320001F910C94181A1F93CF93DF93EC01162F73
:102330008D81882389F189A99AA9DC01ED91FC910D
:102340000480F581E02D0995892BA9F307C0263774
:10235000310519F12835310509F41D8289A99AA999
:10236000DC01ED91FC910480F581E02D09951816B2
:10237000190694F489A99AA9DC01ED91FC910680D3
:10238000F781E02D09959C01332723363105F9F6B5
:10239000612FCE010E94721183E6DF91CF911F91D0
:1023A00008950F931F93CF93DF931F92CDB7DEB79E
:1023B0008C01662349F081E0F801858360E0C80163
:1023C00049830E9493114981F80145830F90DF9161
:1023D000CF911F910F9108958091E00390E020919B
:1023E000E103821B910908952091E1038091E003AC
:1023F000281750F4E22FF0E0EE51FC4F808190E07E
:102400002F5F2093E10308958FEF9FEF0895E091F0
:10241000E1038091E003E81730F4F0E0EE51FC4F67
:10242000808190E008958FEF9FEF08950895CF92F7
:10243000DF92EF92FF920F931F93CF93DF937C0174
:10244000CB018A012091BC03222389F0EB016B01AF
:10245000C40ED51ECC15DD0569F06991D701ED914B
:10246000FC910190F081E02DC7010995F3CF642F15
:102470000E94AA13C801DF91CF911F910F91FF9085
:10248000EF90DF90CF900895CF93DF931F92CDB759
:10249000DEB769832091BC032223D1F02091BD03D4
:1024A000203240F021E030E0FC013383228380E0E1
:1024B00090E015C08091BE03E82FF0E0E154FC4F9E
:1024C000998190838F5F8093BE038093BD0305C085
:1024D00061E0CE0101960E94AA1381E090E00F9086
:1024E000DF91CF910895FC011382128248EE53E0F0
:1024F00060E070E0448355836683778385E092E0F3
:1025000091838083089581E08093BC036093DF030F
:102510001092BE031092BD0308950F93062F21E081
:102520004091BD036FEB73E08091DF030E94531372
:102530001092BE031092BD031092BC030F91089538
:102540008F929F92AF92BF92CF92DF92EF92FF92C3
:102550000F931F93CF93DF93EC01F62ED42E4801F7
:102560005901EE2019F10E9483121E2D143008F03B
:1025700013E01150B8F0E881F98128E0129FB00112
:102580001124A501940104C05695479537952795C8
:102590006A95D2F7CA01B9010190F081E02DCE0110
:1025A0000995E7CF60E0CE010E948D124D2D41329A
:1025B00008F040E22C2D62EE73E08F2D0E940B1389
:1025C0001092E1038093E003DF91CF911F910F916F
:1025D000FF90EF90DF90CF90BF90AF909F908F9043
:1025E0000895CF92EF920F931F93C22EE12C00E03B
:1025F00010E098010E94A0121F910F91EF90CF90D0
:10260000089521E00C94F11261E00C948D1280EB9E
:1026100093E00C947312413208F043C090916F0420
:102620009111FCCF91E090936F0420936D042FEFF4
:102630002093020410924704240F209346049093A1
:102640006E0490916E04880F892B80936E048091A4
:102650006C04813061F410926C0480916E0480935C
:10266000BB008091BC0083FDF8CF85EC01C085EEF6
:102670008093BC0080916F048130E1F38091470426
:10268000841710F44091470428E434E0FB01D90199
:102690008A2F821B841718F48D918193F9CF842F90
:1026A000089580E008950F93413208F04AC0909158
:1026B0006F049111FCCF92E090936F0400936D042E
:1026C0009FEF909302041092470440934604FB014D
:1026D00068E474E0DB019A2F961B941718F491912B
:1026E0009D93F9CF10926E0490916E04880F892B00
:1026F00080936E0480916C04813061F410926C04BC
:1027000080916E048093BB008091BC0083FDF8CF64
:1027100085EC01C085EE8093BC00222321F08091DE
:102720006F048230E1F3809102048F3F61F0809169
:102730000204803251F080910204803341F483E03E
:1027400007C081E005C080E003C082E001C084E0F2
:102750000F910895613298F420916F04243089F428
:1027600060932404FC0186E294E0DC012A2F281BFC
:10277000261718F421912D93F9CF80E0089581E078
:10278000089582E0089585ED8093BC008091BC009F
:1027900084FDFCCF10926F04089585EC8093BC00FB
:1027A00010926F0408951F920F920FB60F9211248A
:1027B0002F933F934F935F936F937F938F939F9349
:1027C000AF93BF93EF93FF938091B900887F8036DA
:1027D00009F49EC078F5883209F45DC090F4803128
:1027E00009F456C038F4882309F4F5C0883009F498
:1027F0004FC0F5C0883109F44EC0803209F45FC083
:10280000EEC0803409F46AC058F4803309F457C02C
:10281000883309F0E4C0809302040E94CD13DFC026
:10282000803509F44FC0883509F45DC0883409F05B
:10283000D6C0D3C0883909F4C4C0A8F4883709F4D5
:1028400067C038F4883609F463C0803709F460C083
:10285000C6C0883809F4B5C0803909F45FC0803833
:1028600009F0BDC05BC0803B09F483C038F4803AF6
:1028700009F466C0883A09F47CC0B1C0803C09F410
:10288000A4C0883C09F4A1C0883B09F487C0A7C054
:1028900080916E0410C0909147048091460498176F
:1028A00070F5E091470481E08E0F80934704F0E0DB
:1028B000E85BFB4F80818093BB0085EC83C08093F5
:1028C00002048BC0E091470481E08E0F809347049F
:1028D0008091BB00F0E0E85BFB4F80839091470460
:1028E000809146046BC0E091470481E08E0F809395
:1028F00047048091BB00F0E0E85BFB4F8083809150
:102900006D0481116AC081E080936C0484EA5EC02A
:1029100083E080936F0410920304CFCF809103046F
:10292000803208F04EC0E091030481E08E0F809366
:1029300003048091BB00F0E0EC5FFB4F8083BDCFD0
:102940000E94CD1380910304803230F4E09103049F
:10295000F0E0EC5FFB4F10826091030470E0E091C7
:102960006804F091690484E094E0099510920304EE
:1029700036C084E080936F041092250410922404E2
:10298000E0916A04F0916B0409958091240481110F
:1029900005C081E08093240410922604E091250470
:1029A00081E08E0F80932504F0E0EA5DFB4F80818B
:1029B0008093BB009091250480912404981708F41B
:1029C0007CCF85E88093BC000AC085EC8093BC0076
:1029D00010926F0404C0109202040E94C313FF916E
:1029E000EF91BF91AF919F918F917F916F915F9187
:1029F0004F913F912F910F900FBE0F901F90189500
:102A00001F920F920FB60F9211242F933F934F9363
:102A10005F936F937F938F939F93AF93BF93EF9346
:102A2000FF93109285001092840080910E018823FC
:102A300069F061E084E00E94E81A88E592E09093F2
:102A400089008093880010920E0142C060E084E00B
:102A50000E94E81A81E080930E0140917204463092
:102A6000C0F0109272048091700490917104845DA2
:102A70009E4F919581959109880F991F8052944599
:102A800090938900809388001092710410927004D2
:102A90001FC0E42FF0E0EE0FFF1FE657FA4F8081D2
:102AA00091818C529140880F991F90938900809357
:102AB0008800809170049091710420813181820F8F
:102AC000931F90937104809370044F5F409372043E
:102AD000FF91EF91BF91AF919F918F917F916F91F6
:102AE0005F914F913F912F910F900FBE0F901F90CC
:102AF0001895AF92BF92CF92DF92EF92FF920F9311
:102B00001F93CF93DF935C016A017B01E9010115FB
:102B1000110521F485EB96E00E940B09402F60E03F
:102B200085EB96E00E941209B50185EB96E00E94C4
:102B30005A1D20E030E0A901C701B6010E943321EF
:102B40008823B9F061E172E085EB96E00E94681D90
:102B50009E01B701A60185EB96E0DF91CF911F9111
:102B60000F91FF90EF90DF90CF90BF90AF900C94BB
:102B7000131FDF91CF911F910F91FF90EF90DF9086
:102B8000CF90BF90AF9008950F931F93CF93DF9393
:102B9000CDB7DEB72C970FB6F894DEBF0FBECDBF12
:102BA00040ED57E060E070E089E793E00E94531148
:102BB00020E835E240E050E066ED76E089E793E01A
:102BC0000E94661189E793E00E94501163E172E070
:102BD0008091AA039091AB030E94681D6AE070E0A7
:102BE00080E090E00E94181A41E060E089E793E0FD
:102BF0000E94D11126E040E855E260E070E086EDE9
:102C000096E00E94031C40E855E260E070E08DE928
:102C100095E00E94D80B68EC70E087E995E00E948F
:102C2000461F20E042E060E185EB96E00E942C091F
:102C300065E272E0CE0107960E94831FBE01695FC4
:102C40007F4FCE0101960E94B01F00E010E020E00F
:102C500030E040E050E0BA01CE0101960E947915C3
:102C6000CE0101960E94151F20E042E060E18DE94F
:102C700096E00E942C0940E060E08DE996E00E9419
:102C8000120961E372E08DE996E00E94681D68EB2D
:102C90007BE080E090E00E94181ACE0107960E9427
:102CA000151F2C960FB6F894DEBF0FBECDBFDF9177
:102CB000CF911F910F910895CF92EF920F934DE016
:102CC000C42E5CE0E52E0BE02AE049E068E085EBED
:102CD00096E00E94CA092AE047E068E08DE996E0A4
:102CE0000E94CA094DE556E760E070E08AE896E088
:102CF0000E94C1044EE556E760E070E084E796E08C
:102D00000E94CB0441E556E460E070E08DE696E079
:102D10000E94890144E756E06AE876E089E696E099
:102D20000E94D6008CEB95E00E94660C20E046E005
:102D300065E08DE995E00E94A80B68EB71E087E9FA
:102D400095E00F91EF90CF900C94831F87E995E069
:102D50000E94151F8DE995E00E944F0B86E291E0DD
:102D600090936E0680936D0690937506809374061B
:102D700090938B0680938A060895CF92DF92EF920C
:102D8000FF926B017C01C114D104E104F104E1F074
:102D900086ED96E00E94201B892B81F086ED96E05F
:102DA0000E94201B892B81F086ED96E00E94391B42
:102DB000682F8CEB95E00E94A010F0CF81E0C81A3C
:102DC000D108E108F108DFCFFF90EF90DF90CF90BE
:102DD0000895CF93DF93D1E08DE995E00E947E0ABC
:102DE000892B79F08DE995E00E94F009C82F682FB2
:102DF00087E995E00E94FD1FCA3071F7D0939605D0
:102E0000EBCFDF91CF910895EF92FF920F931F9335
:102E1000CF93DF93CDB7DEB764970FB6F894DEBFDC
:102E20000FBECDBF0E94E91680919605882309F454
:102E300010C26DE672E0CE0101960E94831F01E090
:102E400010E020E030E040E050E0BA01CE01019611
:102E50000E947915CE0101960E94151F60E772E06D
:102E600087E995E00E941020882329F080911901BC
:102E700090911A01E2C16AE772E087E995E00E9449
:102E80001020811115C067E872E087E995E00E9483
:102E90001020882329F08091150190911601CDC151
:102EA00062E972E087E995E00E941020882319F01A
:102EB0008CED95E0C2C160EA72E087E995E00E947E
:102EC0001020882319F088E097E00AC067EA72E0D2
:102ED00087E995E00E941020882339F08CED95E079
:102EE0009093100180930F01ACC161EB72E087E910
:102EF00095E00E941020882319F080EB94E0F0CF39
:102F000069EB72E087E995E00E9410208111E6CF1D
:102F100064EC72E087E995E00E9410208823A9F014
:102F2000109289058CED95E09093100180930F012C
:102F300090931201809311011092780410927704FB
:102F400010927A04109279047CC160ED72E087E9F6
:102F500095E00E941020882391F08091790490914F
:102F60007A041816190644F4109278041092770423
:102F700081E08093890565C11092890562C16DED7C
:102F800072E087E995E00E941020882361F180912A
:102F9000190190911A010A9690931A0180931901D0
:102FA0002091170130911801265F3F4F309318018F
:102FB0002093170120911501309116012A503109F3
:102FC00030931601209315012091130130911401C3
:102FD0002A5031093093140120931301813D974009
:102FE0000CF42FC172C061EE72E087E995E00E9497
:102FF00010208823B1F168EE73E080E090E00E9439
:10300000BD168CEB95E00E940E0E20E030E0A90189
:103010000E943321882379F38CEB95E00E940E0EF9
:10302000AB01BC0126E030E08DE995E00E94131F62
:103030006FEE72E08DE995E00E94681D8CEB95E0E3
:103040000E943A0EAB01BC0126E030E08DE995E02C
:103050000E94131F67EB71E08DE995E00E94681DE7
:10306000F0C061EF72E087E995E00E9410208823AC
:1030700009F440C08091190190911A010A97909328
:103080001A018093190120911701309118012A50DB
:1030900031093093180120931701209115013091C7
:1030A0001601265F3F4F30931601209315012091A2
:1030B000130130911401265F3F4F30931401209388
:1030C0001301863E95400CF0BCC080E496E09093DE
:1030D0001A0180931901909318018093170188E7D2
:1030E00095E09093160180931501909314018093BD
:1030F0001301A7C060E070E087E995E00E942F20EF
:10310000FC018081992787FD9095C0970A9708F068
:103110008CC067E975E0CE010D960E94B01F67E98B
:1031200075E0CE0107960E94B01F67E975E0CE01F9
:1031300001960E94B01F6CE287E995E00E945D2035
:103140007C016CE287E995E00E9494208C01B70134
:10315000CE010D960E94C920A7014F5F5F4F60E02E
:1031600070E0CE0107960E949B20B8016250710961
:10317000CE0107960E94C920A8014F5F5F4F60E013
:1031800070E0CE0101960E949B200091790410917D
:103190007A04BE016D5E7F4F8F8198850E947F25E6
:1031A000E2E1FE2EF09EF001F19EF00D1124E558B3
:1031B000FB4F60837183828393836AE070E080E0D9
:1031C00090E00E94181A0091790410917A04BE01CF
:1031D0006D5E7F4F89819A810E947F25F09EF0016C
:1031E000F19EF00D1124E558FB4F648375838683AF
:1031F00097838091790490917A04019690937A0450
:10320000809379040B9724F010927A041092790439
:10321000CE0101960E94151FCE0107960E94151F30
:10322000CE010D960E94151F0CC0109289058CEDE1
:1032300095E09093100180930F0190931201809379
:10324000110168EB71E087E995E00E94B91F1092C7
:10325000960564960FB6F894DEBF0FBECDBFDF9122
:10326000CF911F910F91FF90EF900895CF92DF9231
:10327000EF92FF920F931F93CF93DF9300D000D074
:1032800000D0CDB7DEB7C0907304D0907404E09046
:103290007504F090760465EF72E0CE0101960E940D
:1032A000831F01E010E020E030E0B701A601CE016D
:1032B00001960E947915CE0101960E94151F20E00B
:1032C00030E040E85FE36091730470917404809192
:1032D0007504909176040E94CF206B017C0120E060
:1032E00030E04AE754E40E94822218164CF0C09263
:1032F0007304D0927404E0927504F092760408C0CE
:103300001092730410927404109275041092760453
:1033100068EC70E080E090E00E94181A0E940417A8
:1033200026960FB6F894DEBF0FBECDBFDF91CF91CA
:103330001F910F91FF90EF90DF90CF9008951F9213
:103340000F920FB60F9211242F933F938F939F9359
:10335000AF93BF938091CE069091CF06A091D006F7
:10336000B091D1063091CD0623E0230F2D3720F404
:103370000196A11DB11D05C026E8230F0296A11DCF
:10338000B11D2093CD068093CE069093CF06A093D7
:10339000D006B093D1068091D2069091D306A09129
:1033A000D406B091D5060196A11DB11D8093D20619
:1033B0009093D306A093D406B093D506BF91AF9156
:1033C0009F918F913F912F910F900FBE0F901F9063
:1033D00018952FB7F8946091CE067091CF06809122
:1033E000D0069091D1062FBF08953FB7F8948091F1
:1033F000D2069091D306A091D406B091D50626B5F9
:10340000A89B05C02F3F19F00196A11DB11D3FBF1C
:103410006627782F892F9A2F620F711D811D911DAC
:1034200042E0660F771F881F991F4A95D1F70895CC
:10343000CF92DF92EF92FF92CF93DF936B017C01EB
:103440000E94F519EB01C114D104E104F10489F0E3
:103450000E94CD200E94F5196C1B7D0B683E7340C5
:1034600090F381E0C81AD108E108F108C851DC4F97
:10347000EACFDF91CF91FF90EF90DF90CF9008954A
:103480008230910538F0880F991F880F991F059792
:103490000197F1F70895789484B5826084BD84B56E
:1034A000816084BD85B5826085BD85B5816085BD3F
:1034B000EEE6F0E0808181608083E1E8F0E0108258
:1034C000808182608083808181608083E0E8F0E099
:1034D000808181608083E1EBF0E080818460808383
:1034E000E0EBF0E0808181608083EAE7F0E08081BA
:1034F000846080838081826080838081816080831A
:103500008081806880831092C1000895833081F0AB
:1035100028F4813099F08230A1F008958730A9F025
:103520008830B9F08430D1F4809180008F7D03C061
:10353000809180008F7780938000089584B58F7785
:1035400002C084B58F7D84BD08958091B0008F77CF
:1035500003C08091B0008F7D8093B0000895CF9319
:10356000DF9390E0FC01E253FF4F2491FC01EE5108
:10357000FF4F8491882349F190E0880F991FFC0147
:10358000E65FFE4FA591B49180509F4FFC01C5911D
:10359000D4919FB7611108C0F8948C912095822333
:1035A0008C93888182230AC0623051F4F8948C9104
:1035B000322F309583238C938881822B888304C09B
:1035C000F8948C91822B8C939FBFDF91CF910895BB
:1035D0000F931F93CF93DF931F92CDB7DEB7282FA2
:1035E00030E0F901E654FF4F8491F901E253FF4FB7
:1035F0001491F901EE51FF4F04910023C9F0882383
:1036000021F069830E94861A6981E02FF0E0EE0FB5
:10361000FF1FE050FF4FA591B4919FB7F8948C9194
:10362000611103C01095812301C0812B8C939FBF32
:103630000F90DF91CF911F910F9108950E94E22684
:10364000FC01818D228D90E0805C9F4F821B91094F
:103650008F7399270895FC01918D828D981731F011
:10366000828DE80FF11D858D90E008958FEF9FEF1B
:103670000895FC01918D828D981761F0828DDF0194
:10368000A80FB11D5D968C91928D9F5F9F73928F55
:1036900090E008958FEF9FEF08958DEB9CE1892BCB
:1036A00049F089EE96E1892B29F00E94BD1C811119
:1036B0000C94E9160895FC01848DDF01A80FB11D5B
:1036C000A35ABF4F2C91848D90E001968F73992758
:1036D000848FA689B7892C93A089B1898C91806445
:1036E0008C93938D848D981306C00288F389E02D06
:1036F00080818F7D80830895CF93DF93EC01888D47
:103700008823C9F0EA89FB89808185FD05C0A889E5
:10371000B9898C9186FD0FC00FB607FCF5CF80816B
:1037200085FFF2CFA889B9898C9185FFEDCFCE01B5
:103730000E945B1BE7CFDF91CF910895CF92DF927C
:10374000FF920F931F93CF93DF931F92CDB7DEB7F6
:103750006C0181E0D60158968C9358975B969C91AA
:103760005B975C968C915C97981307C05096ED918F
:10377000FC915197808185FD2EC0F601038D10E0EC
:103780000F5F1F4F0F731127F02EF601848DF81273
:1037900011C00FB607FCF9CFD6015096ED91FC9100
:1037A0005197808185FFF1CFC60169830E945B1B21
:1037B0006981EBCF838DE80FF11DE35AFF4F6083E2
:1037C000D6015B960C935B975296ED91FC915397C3
:1037D000808180620CC0D6015696ED91FC9157977E
:1037E00060835096ED91FC91519780818064808335
:1037F00081E090E00F90DF91CF911F910F91FF90AA
:10380000DF90CF900895BF92CF92DF92EF92FF9218
:10381000CF93DF93EC016A017B01B22EE889F9892D
:1038200082E08083411581EE580761057105A1F0A2
:1038300060E079E08DE390E0A70196010E941123FA
:1038400021503109410951095695479537952795DA
:10385000211580E1380798F0E889F989108260E83D
:1038600074E88EE190E0A70196010E941123215097
:103870003109410951095695479537952795EC85AA
:10388000FD853083EE85FF852083188EEC89FD89C8
:10389000B082EA89FB89808180618083EA89FB8923
:1038A000808188608083EA89FB8980818068808349
:1038B000EA89FB8980818F7D8083DF91CF91FF90A2
:1038C000EF90DF90CF90BF9008951F920F920FB6A8
:1038D0000F9211242F938F939F93EF93FF93E09177
:1038E000E606F091E7068081E091EC06F091ED06A6
:1038F00082FD12C090818091EF068F5F8F732091BF
:10390000F006821751F0E091EF06F0E0EA52F94F2D
:10391000958F8093EF0601C08081FF91EF919F9179
:103920008F912F910F900FBE0F901F9018951F929F
:103930000F920FB60F9211242F933F934F935F93E3
:103940006F937F938F939F93AF93BF93EF93FF9367
:1039500086ED96E00E945B1BFF91EF91BF91AF91C6
:103960009F918F917F916F915F914F913F912F9197
:103970000F900FBE0F901F90189586ED96E00E9455
:10398000201B21E0892B09F420E0822F089510925A
:10399000D9061092D80688EE93E0A0E0B0E08093BC
:1039A000DA069093DB06A093DC06B093DD0683E095
:1039B00093E09093D7068093D60685EC90E09093A1
:1039C000E3068093E20684EC90E09093E506809312
:1039D000E40680EC90E09093E7068093E60681ECA5
:1039E00090E09093E9068093E80682EC90E0909353
:1039F000EB068093EA0686EC90E09093ED068093C8
:103A0000EC061092EF061092F0061092F10610925A
:103A1000F206089508950E944B1A0E940A1D0E9402
:103A2000C415CDE4DBE10E9436192097E1F30E9432
:103A30004D1BF9CF0C942624CF92DF92EF92FF9288
:103A40000F931F93CF93DF937C016A01EB0100E09A
:103A500010E00C151D0571F06991D701ED91FC91F5
:103A60000190F081E02DC7010995892B19F00F5FB6
:103A70001F4FEFCFC801DF91CF911F910F91FF90A2
:103A8000EF90DF90CF9008956115710581F0DB0113
:103A90000D900020E9F7AD0141505109461B570B2D
:103AA000DC01ED91FC910280F381E02D099480E02E
:103AB00090E00895DC01ED91FC91DB0114964D91AD
:103AC0005C9115976D917C910280F381E02D0994B2
:103AD0000C94441DDC01ED91FC910190F081E02DEE
:103AE00009948F929F92AF92BF92CF92DF92EF9202
:103AF000FF920F931F93CF93DF93CDB7DEB7A197BC
:103B00000FB6F894DEBF0FBECDBF7C01C42EE52FEB
:103B1000CB01D22E19A221E02D1510F02AE0D22ED1
:103B20008E010F5D1F4F8D2C912CA12CB12C6C2D73
:103B30007E2FA50194010E9411238C2DD29E801905
:103B40001124015011098A3014F4805D01C0895C90
:103B5000F8018083211531054105510521F0C22E60
:103B6000E32FCA01E4CFB801C7010E94441DA1960A
:103B70000FB6F894DEBF0FBECDBFDF91CF911F917E
:103B80000F91FF90EF90DF90CF90BF90AF909F90FC
:103B90008F900895CF92DF92EF92FF920F931F9331
:103BA000CF93DF93EC016A017B012115310579F494
:103BB000E881F9810190F081E02D642FDF91CF91B0
:103BC0001F910F91FF90EF90DF90CF9009942A30D2
:103BD0003105E9F477FF1AC06DE20E946A1D8C017D
:103BE00044275527BA014C195D096E097F092AE05F
:103BF000CE010E94711D800F911FDF91CF911F9107
:103C00000F91FF90EF90DF90CF9008952AE0B701D9
:103C1000A601CE01DF91CF911F910F91FF90EF9000
:103C2000DF90CF900C94711D2115310541F4DC011A
:103C3000ED91FC910190F081E02D642F09940C949A
:103C4000711D9A01462F50E060E070E00C94141E44
:103C50004F925F926F927F928F929F92AF92BF929C
:103C6000CF92DF92EF92FF920F931F93CF93DF9348
:103C7000EC016A017B01B22E9A01AB01C701B601CA
:103C80000E94E922882319F06FE073E027C0260123
:103C90003701E89477F82FEF3FEF4FE75FE7C30175
:103CA000B2010E94E92281110DC02FEF3FEF4FE7D3
:103CB0005FE7C301B2010E94332118161CF463E1CF
:103CC00073E00CC02FEF3FEF4FE75FE4C701B60191
:103CD0000E9482221816ACF467E173E0CE01DF91F6
:103CE000CF911F910F91FF90EF90DF90CF90BF90F9
:103CF000AF909F908F907F906F905F904F900C94BB
:103D0000441D2FEF3FEF4FE75FECC701B6010E9464
:103D1000332187FDE1CF20E030E0A901C701B601E2
:103D20000E94332187FF0AC06DE2CE010E946A1D06
:103D30008C01F7FAF094F7F8F09402C000E010E07C
:103D4000A12C60E070E080E09FE3AB1441F020E044
:103D500030E040E251E40E943721A394F6CF9B016A
:103D6000AC01C701B6010E94CF206B017C010E940B
:103D7000A4212B013C010E94D0219B01AC01C70171
:103D8000B6010E94CE206B017C012AE0B301A201A2
:103D9000CE010E94711D080F191FBB2039F06BE185
:103DA00073E0CE010E94441D080F191F7B2C772061
:103DB00041F120E030E040E251E4C701B6010E9449
:103DC00086226B017C010E949F214B01AA2497FC53
:103DD000A094BA2C2AE030E0B501A401CE010E94E3
:103DE000CA1D080F191FC501B4010E94D2219B01F1
:103DF000AC01C701B6010E94CE206B017C017A9410
:103E0000D6CFC801DF91CF911F910F91FF90EF9016
:103E1000DF90CF90BF90AF909F908F907F906F90EA
:103E20005F904F9008950C94281EFC018081918131
:103E30000C942624CF93DF93EC018881998100971D
:103E400011F00E942624198218821D821C821B8276
:103E50001A82DF91CF9108950F931F93CF93DF9331
:103E6000EC018B016F5F7F4F888199810E94B5249F
:103E7000009731F0998388831B830A8381E001C016
:103E800080E0DF91CF911F910F910895CF93DF9341
:103E9000EC0188819981892B29F08A819B81861781
:103EA000970760F4CE010E942C1F882341F08C817B
:103EB0009D81892B19F4E881F981108281E0DF91DD
:103EC000CF910895EF92FF920F931F93CF93DF93BB
:103ED000EC017B018A01BA010E94461F811104C0D6
:103EE000CE010E941A1F07C01D830C83B701888171
:103EF00099810E944B27CE01DF91CF911F910F91A5
:103F0000FF90EF900895FC011182108213821282BB
:103F1000158214826115710559F0FB010190002092
:103F2000E9F7AF0141505109461B570B0C94621F32
:103F30000895CF93DF93EC01FB018617970761F09B
:103F4000608171816115710529F0448155810E945C
:103F5000621F02C00E941A1FCE01DF91CF91089507
:103F6000FC011182108213821282158214820C9439
:103F7000991FCF93DF93EC016115710561F0FB018F
:103F800001900020E9F7AF0141505109461B570B42
:103F90000E94621F02C00E941A1FCE01DF91CF91C2
:103FA0000895EF92FF920F931F93CF93DF93EC014D
:103FB0007B010C811D816115710511F480E016C033
:103FC0004115510591F0040F151FB8010E94461FBD
:103FD0008823A1F3288139818C819D81B701820FCB
:103FE000931F0E944B271D830C8381E0DF91CF91AB
:103FF0001F910F91FF90EF900895CF93DF9300D022
:10400000CDB7DEB769831A8241E050E0BE016F5F31
:104010007F4F0E94D11F0F900F90DF91CF91089595
:10402000FC0124813581232B31F421E061157105D8
:10403000A1F0FB0108C0FC0180819181611571052F
:1040400031F421E0FC018081882339F005C00E9411
:10405000422721E0892B09F020E0822F0895FC01FE
:10406000848195816817790720F480819181009778
:1040700029F41092730783E797E00895860F971F3E
:104080000895CF93DF93FC018481958148175907E8
:1040900078F4C081D181772767FD7095CE01840FB8
:1040A000951F0E943727009719F08C1B9D0B02C0AB
:1040B0008FEF9FEFDF91CF91089540E050E00C9497
:1040C0004120DF92EF92FF920F931F93CF93DF93E4
:1040D000EC018C819D814817590718F08FEF9FEFF5
:1040E0001BC08A010F5F1F4FE881F981E00FF11FAC
:1040F000D0801082E880F980772767FD7095C7012E
:104100000E946127F701E00FF11FD082009731F381
:1041100028813981821B930BDF91CF911F910F91E1
:10412000FF90EF90DF900895FC014481558141504C
:1041300051090C946120CF93DF93EC01CB012C81CA
:104140003D816217730710F541155105F9F0B9016A
:10415000681B790B4617570708F4BA01E881F98103
:10416000261B370B3D832C83A901481B590B680F75
:10417000791F6E0F7F1F8E0F9F1F0E945227E881AD
:10418000F9818C819D81E80FF91F1082DF91CF9119
:1041900008954FEF5FEF0C949B2008955058BB2774
:1041A000AA270ED075C166D130F06BD120F031F462
:1041B0009F3F11F41EF45BC10EF4E095E7FB51C183
:1041C000E92F77D180F3BA17620773078407950741
:1041D00018F071F49EF58FC10EF4E0950B2EBA2FF6
:1041E000A02D0B01B90190010C01CA01A0011124FD
:1041F000FF27591B99F0593F50F4503E68F11A16A9
:10420000F040A22F232F342F4427585FF3CF469539
:1042100037952795A795F0405395C9F77EF41F165B
:10422000BA0B620B730B840BBAF09150A1F0FF0F25
:10423000BB1F661F771F881FC2F70EC0BA0F621F11
:10424000731F841F48F4879577956795B795F79501
:104250009E3F08F0B3CF9395880F08F09927EE0F93
:10426000979587950895D9D008F481E008950CD0EA
:104270000FC107D140F0FED030F021F45F3F19F0BC
:10428000F0C0511139C1F3C014D198F39923C9F387
:104290005523B1F3951B550BBB27AA27621773074C
:1042A000840738F09F5F5F4F220F331F441FAA1F00
:1042B000A9F333D00E2E3AF0E0E830D091505040C0
:1042C000E695001CCAF729D0FE2F27D0660F771F6E
:1042D000881FBB1F261737074807AB07B0E809F050
:1042E000BB0B802DBF01FF2793585F4F2AF09E3FE5
:1042F000510568F0B6C000C15F3FECF3983EDCF3B7
:10430000869577956795B795F7959F5FC9F7880F5D
:10431000911D9695879597F90895E1E0660F771FAF
:10432000881FBB1F621773078407BA0720F0621B40
:10433000730B840BBA0BEE1F88F7E095089504D039
:104340006894B111D9C00895BCD088F09F5790F0FF
:10435000B92F9927B751A0F0D1F0660F771F881FAA
:10436000991F1AF0BA95C9F712C0B13081F0C3D0C5
:10437000B1E00895C0C0672F782F8827B85F39F063
:10438000B93FCCF3869577956795B395D9F73EF409
:1043900090958095709561957F4F8F4F9F4F0895B1
:1043A000E89409C097FB3EF49095809570956195CF
:1043B0007F4F8F4F9F4F9923A9F0F92F96E9BB2785
:1043C0009395F695879577956795B795F111F8CF01
:1043D000FAF4BB0F11F460FF1BC06F5F7F4F8F4F6C
:1043E0009F4F16C0882311F096E911C0772321F062
:1043F0009EE8872F762F05C0662371F096E8862FFA
:1044000070E060E02AF09A95660F771F881FDAF750
:10441000880F9695879597F90895990F0008550F7D
:10442000AA0BE0E8FEEF16161706E807F907C0F03A
:1044300012161306E407F50798F0621B730B840B42
:10444000950B39F40A2661F0232B242B252B21F41C
:1044500008950A2609F4A140A6958FEF811D811DBC
:10446000089597F99F6780E870E060E008959FEFF6
:1044700080EC089500240A941616170618060906FB
:10448000089500240A9412161306140605060895CA
:10449000092E0394000C11F4882352F0BB0F40F452
:1044A000BF2B11F460FF04C06F5F7F4F8F4F9F4F92
:1044B000089557FD9058440F551F59F05F3F71F014
:1044C0004795880F97FB991F61F09F3F79F087957B
:1044D0000895121613061406551FF2CF4695F1DF04
:1044E00008C0161617061806991FF1CF8695710594
:1044F000610508940895E894BB2766277727CB01C8
:1045000097F908958ADF08F48FEF08950BD0C0CF94
:10451000B1DF28F0B6DF18F0952309F0A2CFA7CFBE
:104520001124EACFC6DFA0F3959FD1F3950F50E099
:10453000551F629FF001729FBB27F00DB11D639F55
:10454000AA27F00DB11DAA1F649F6627B00DA11DFB
:10455000661F829F2227B00DA11D621F739FB00DA1
:10456000A11D621F839FA00D611D221F749F332711
:10457000A00D611D231F849F600D211D822F762FAA
:104580006A2F11249F5750408AF0E1F088234AF0A7
:10459000EE0FFF1FBB1F661F771F881F91505040F3
:1045A000A9F79E3F510570F05CCFA6CF5F3FECF3BB
:1045B000983EDCF3869577956795B795F795E795DF
:1045C0009F5FC1F7FE2B880F911D9695879597F9F0
:1045D000089523DF880B990B0895DB018F939F9338
:1045E0000E945823BF91AF91A29F800D911DA39F60
:1045F000900DB29F900D1124089597FB072E16F48D
:10460000009407D077FD09D00E946B2307FC05D0EA
:104610003EF4909581959F4F0895709561957F4FD9
:104620000895A1E21A2EAA1BBB1BFD010DC0AA1FF3
:10463000BB1FEE1FFF1FA217B307E407F50720F00B
:10464000A21BB30BE40BF50B661F771F881F991F86
:104650001A9469F760957095809590959B01AC01CF
:10466000BD01CF010895052E97FB1EF400940E9412
:104670004A2357FD07D00E94112307FC03D04EF4B4
:104680000C944A2350954095309521953F4F4F4FBC
:104690005F4F089590958095709561957F4F8F4FEE
:1046A0009F4F0895EE0FFF1F0590F491E02D0994A0
:1046B0000E947F23A59F900DB49F900DA49F800D15
:1046C000911D11240895B7FF0C9458230E9458237C
:1046D000821B930B0895AA1BBB1B51E107C0AA1FA5
:1046E000BB1FA617B70710F0A61BB70B881F991F93
:1046F0005A95A9F780959095BC01CD010895A29F88
:10470000B001B39FC001A39F700D811D1124911DA5
:10471000B29F700D811D1124911D0895CF93DF93D9
:104720008230910510F482E090E0E0917607F091FC
:10473000770720E030E0A0E0B0E0309739F1408129
:10474000518148175907B8F04817590771F4828109
:104750009381109729F013969C938E9312972CC0F7
:10476000909377078093760727C02115310531F0A4
:104770004217530718F0A901DB0101C0EF019A01AC
:10478000BD01DF010280F381E02DD7CF2115310576
:10479000F9F0281B390B2430310580F48A819B8184
:1047A0006115710521F0FB019383828304C090930E
:1047B000770780937607FE01329644C0FE01E20F30
:1047C000F31F8193919322503109398328833AC092
:1047D0002091740730917507232B41F42091020139
:1047E00030910301309375072093740720910001E5
:1047F000309101012115310541F42DB73EB74091AB
:10480000040150910501241B350BE0917407F091D0
:104810007507E217F307A0F42E1B3F0B2817390783
:1048200078F0AC014E5F5F4F2417350748F04E0F0C
:104830005F1F50937507409374078193919302C053
:10484000E0E0F0E0CF01DF91CF910895CF93DF93C7
:10485000009709F487C0FC01329713821282C0913D
:104860007607D0917707209781F420813181280F36
:10487000391F80917407909175078217930779F516
:10488000F0937507E09374076DC0DE0120E030E01F
:10489000AE17BF0750F412964D915C9113979D018E
:1048A0004115510509F1DA01F3CFB383A2834081A9
:1048B0005181840F951F8A179B0771F48D919C91EC
:1048C0001197840F951F02969183808312968D9184
:1048D0009C911397938382832115310529F4F093DA
:1048E0007707E09376073EC0D9011396FC93EE93C9
:1048F00012974D915D91A40FB51FEA17FB0779F44C
:1049000080819181840F951F0296D90111969C9305
:104910008E938281938113969C938E931297E0E0FD
:10492000F0E08A819B81009719F0FE01EC01F9CF3C
:10493000CE01029628813981820F931F209174073E
:10494000309175072817390769F4309729F41092C8
:1049500077071092760702C013821282D0937507F0
:10496000C0937407DF91CF910895A0E0B0E0EBEB26
:10497000F4E20C948827EC01CB01209719F40E94F3
:104980008E23B8C0FE01E60FF71F9E0122503109A9
:10499000E217F30708F4ACC0D9010D911C911197EF
:1049A00006171707B8F00530110508F49FC0A801D5
:1049B000445051094617570708F498C0025011098E
:1049C000061B170B019311936D937C93CF010E94EB
:1049D00026248CC05B01A01AB10A4E01800E911EE4
:1049E000A0917607B0917707612C712C60E070E0A0
:1049F000109709F449C0A815B905C9F5ED90FC90C8
:104A00001197670142E0C40ED11CCA14DB0478F18F
:104A100047018A189B08640142E0C40ED11C12961B
:104A2000BC9012971396AC91B5E0CB16D10440F030
:104A3000B282A38391828082D9018D939C9309C015
:104A40000E5F1F4F0E0D1F1DF90111830083EB2D0B
:104A5000FA2F6115710531F0DB011396FC93EE938B
:104A6000129744C0F0937707E09376073FC06D91AB
:104A70007C9111976616770608F43B01BD011296EA
:104A80000D90BC91A02DB4CF609174077091750703
:104A900068157905E9F468167906D0F440910001AB
:104AA000509101014115510541F44DB75EB7609138
:104AB000040170910501461B570BE417F507C0F47C
:104AC000F0937507E0937407F901918380830EC01A
:104AD0000E948E237C01009759F0A801BE010E941C
:104AE0002E27CE010E942624C70104C0CE0102C099
:104AF00080E090E0CDB7DEB7EEE00C94A427A0E014
:104B0000B0E0E5E8F5E20C948A278B0161157105A8
:104B100021F0DB018C9311969C93EC015E01BFEFB9
:104B2000AB1ABB0A7501C8808C2D90E00E940E273D
:104B3000892B11F0E501F2CFEDE2CE1208C07E0123
:104B4000F2E0EF0EF11CC980DD24D39409C02BE202
:104B5000C21205C07E0142E0E40EF11CC980D12CD6
:104B6000E701219743E050E06CE171E0CE010E9443
:104B70001627892BC1F4239645E050E067E171E0E8
:104B8000CE010E941627892B09F4259601151105DF
:104B900019F0D801CD93DC93D11006C160E070E02C
:104BA00080E89FE70AC143E050E064E171E0CE0194
:104BB0000E941627892B59F40115110509F4F9C033
:104BC000B2E0EB0EF11CF801F182E082F2C0F701D5
:104BD00060E070E0CB01C0E0D0E07F01A0EDAA2E44
:104BE000AC0C29E02A1530F14D2D4260B42E2D2D4C
:104BF0002870D2FE04C0211125C0219623C02111A6
:104C00002197A5E0B0E09B01AC010E945823660FFC
:104C1000771F881F991F6A0D711D811D911D6839AD
:104C2000A9E97A078A07A9E19A0760F0BD2DB66065
:104C3000BB2E08C02EEFA2120AC0D3FC50C04D2DCF
:104C40004860B42E3196D701CC90DB2CC6CF2C2DEA
:104C50002F7D253409F043C0A081AD3241F4BD2D34
:104C6000B061DB2E7F0122E0E20EF11C0CC07F015F
:104C7000AB3231F04FEFE41AF40A21E030E006C025
:104C8000A2E0EA0EF11CA18122E030E0A053AA309C
:104C900018F0E21AF30A23C0F70120E030E02038D0
:104CA000BCE03B075CF4A901440F551F440F551F9E
:104CB000240F351F220F331F2A0F311DAF014F5F05
:104CC0005F4F7A01A081A053AA3010F4FA01E7CF18
:104CD000D4FE03C0319521953109C20FD31FD1FEF7
:104CE00009C00115110531F0E1E0EE1AF108D80113
:104CF000ED92FC920E94D0212D2D2370233019F0CB
:104D00004B015C0106C04B015C01B7FAB094B7F8E7
:104D1000B09420E030E0A901C501B4010E94332124
:104D2000882309F43EC0D7FF06C0D195C195D109AB
:104D300003E311E002C00BE411E06801B8E1CB1A13
:104D4000D10890E2E92EF12CCE15DF0574F0F801C0
:104D50002591359145915491C501B4010E94862257
:104D60004B015C01CE19DF09EFCF04501109F59416
:104D7000E7940C151D0541F78A2D880F8B2D881F90
:104D80008F3F49F020E030E0A901C501B4010E9445
:104D90003321811106C082E290E0909379078093DD
:104DA0007807C501B40109C060E070E080E89FEFBA
:104DB00004C060E070E080EC9FE7CDB7DEB7ECE0C8
:104DC0000C94A62781E090E0F8940C94BB271F93E5
:104DD000FC0199278827BC01E89411911032E9F36E
:104DE000193010F01E30C8F31B3251F01D3249F457
:104DF000689406C00E946C27610F711D811D911D72
:104E0000119110531A30B0F33EF49095809570953F
:104E100061957F4F8F4F9F4F1F910895911171C0E2
:104E2000803219F089508550D0F70895FB01DC01DC
:104E30004150504088F08D9181341CF08B350CF43A
:104E4000805E659161341CF06B350CF4605E861BEE
:104E5000611171F3990B0895881BFCCFFB01DC01F4
:104E600002C001900D9241505040D8F70895FC01C6
:104E70008191861721F08823D9F7992708953197D2
:104E8000CF010895FB01DC018D9101908019011083
:104E9000D9F3990B0895FB01DC0101900D920020DC
:104EA000E1F70895FB01DC014150504048F00190CA
:104EB0000D920020C9F701C01D9241505040E0F70B
:104EC0000895FC0181E090E00190061609F4CF01FD
:104ED0000020D1F701970895592F482F372F262FFB
:104EE000660F771F881F991F660F771F881F991FEE
:104EF000620F731F841F951F660F771F881F991FEE
:104F000008959927882708952F923F924F925F9294
:104F10006F927F928F929F92AF92BF92CF92DF92C9
:104F2000EF92FF920F931F93CF93DF93CDB7DEB72E
:104F3000CA1BDB0B0FB6F894DEBF0FBECDBF0994C2
:104F40002A88398848885F846E847D848C849B8419
:104F5000AA84B984C884DF80EE80FD800C811B8127
:104F6000AA81B981CE0FD11D0FB6F894DEBF0FBE56
:104F7000CDBFED01089511E0C6E5D1E004C0FE010A
:104F80000E9454232296C835D107C9F7F894FFCF61
:104F900000007A078000000075440080894401DC2D
:104FA00005DC05140514050E060E06424D5030387A
:104FB000350000000000DC00E900E2001E1B1E1BA3
:104FC00000000000E300F000E200D403F7004C53BF
:104FD0004D333033000000000028043504E2005C4B
:104FE000063C040000000022042E041F044F077931
:104FF0000400000000EA091C1D00000000110A1C4A
:105000001D7E0AF009640A630A4750524D43004767
:1050100050474741004E004E4E4500454E45004525
:1050200053450053534500530053535700575357AC
:1050300000574E57004E4E5700564D4450435F00A8
:105040005F564D4450430D0A004572726F723A200C
:10505000417474656D707420746F20736574206181
:1050600020726561642D6F6E6C7920766172696162
:10507000626C65206F722064617461207479706560
:10508000206E6F7420737570706F727465640D0A92
:10509000000000000044121712EC11F41107121660
:1050A000122000564D4450565F317C315F564D44BE
:1050B00050560D0A004C43442031205374617274E1
:1050C000004C43442032205374617274004C61746C
:1050D000004C6F6E004C61743A496E76616C696485
:1050E000004C6F6E3A496E76616C6964004C65667F
:1050F000740052696768740053746F7000526500E1
:105100007E666F72776172640A007E6E6F74666F7E
:1051100072776172640A007E6261636B77617264A8
:105120000A007E6E6F746261636B776172640A005D
:105130007E6C6566740A007E6E6F746C6566740AB8
:10514000007E72696768740A007E6E6F74726967A8
:1051500068740A007E73746F70726F7574650A00EC
:105160007E7374617274726F7574650A007E610A71
:10517000007E7561646C6F636174696F6E0A002CE8
:10518000007E620A00313233343536373839000058
:105190000000009E1B1C1D201B391B2B1B7C1B6E43
:0E51A000616E00696E66006F7666002E00007C
:00000001FF
